{
	"cocoaland/Pools/BaseSepoliapool.sol": {
		"BaseCocoaLandPool": {
			"abi": [
				{
					"inputs": [
						{
							"internalType": "address",
							"name": "initialOwner",
							"type": "address"
						}
					],
					"stateMutability": "nonpayable",
					"type": "constructor"
				},
				{
					"inputs": [
						{
							"internalType": "address",
							"name": "owner",
							"type": "address"
						}
					],
					"name": "OwnableInvalidOwner",
					"type": "error"
				},
				{
					"inputs": [
						{
							"internalType": "address",
							"name": "account",
							"type": "address"
						}
					],
					"name": "OwnableUnauthorizedAccount",
					"type": "error"
				},
				{
					"anonymous": false,
					"inputs": [
						{
							"indexed": true,
							"internalType": "address",
							"name": "previousOwner",
							"type": "address"
						},
						{
							"indexed": true,
							"internalType": "address",
							"name": "newOwner",
							"type": "address"
						}
					],
					"name": "OwnershipTransferred",
					"type": "event"
				},
				{
					"inputs": [
						{
							"internalType": "address",
							"name": "",
							"type": "address"
						}
					],
					"name": "Authorize",
					"outputs": [
						{
							"internalType": "bool",
							"name": "",
							"type": "bool"
						}
					],
					"stateMutability": "view",
					"type": "function"
				},
				{
					"inputs": [],
					"name": "Balance",
					"outputs": [
						{
							"internalType": "uint256",
							"name": "",
							"type": "uint256"
						}
					],
					"stateMutability": "view",
					"type": "function"
				},
				{
					"inputs": [
						{
							"internalType": "address",
							"name": "",
							"type": "address"
						}
					],
					"name": "LiquidtyProviders",
					"outputs": [
						{
							"internalType": "uint256",
							"name": "",
							"type": "uint256"
						}
					],
					"stateMutability": "view",
					"type": "function"
				},
				{
					"inputs": [
						{
							"internalType": "address",
							"name": "_contract",
							"type": "address"
						}
					],
					"name": "addAuthorization",
					"outputs": [],
					"stateMutability": "nonpayable",
					"type": "function"
				},
				{
					"inputs": [],
					"name": "fund",
					"outputs": [],
					"stateMutability": "payable",
					"type": "function"
				},
				{
					"inputs": [
						{
							"internalType": "uint256",
							"name": "",
							"type": "uint256"
						}
					],
					"name": "funders",
					"outputs": [
						{
							"internalType": "address",
							"name": "",
							"type": "address"
						}
					],
					"stateMutability": "view",
					"type": "function"
				},
				{
					"inputs": [
						{
							"internalType": "address",
							"name": "_address",
							"type": "address"
						}
					],
					"name": "getAuthorization",
					"outputs": [
						{
							"internalType": "bool",
							"name": "",
							"type": "bool"
						}
					],
					"stateMutability": "view",
					"type": "function"
				},
				{
					"inputs": [],
					"name": "getLiquidtyAmount",
					"outputs": [
						{
							"internalType": "uint256",
							"name": "",
							"type": "uint256"
						}
					],
					"stateMutability": "view",
					"type": "function"
				},
				{
					"inputs": [],
					"name": "owner",
					"outputs": [
						{
							"internalType": "address",
							"name": "",
							"type": "address"
						}
					],
					"stateMutability": "view",
					"type": "function"
				},
				{
					"inputs": [
						{
							"internalType": "address",
							"name": "_contract",
							"type": "address"
						}
					],
					"name": "removeAuthorization",
					"outputs": [],
					"stateMutability": "nonpayable",
					"type": "function"
				},
				{
					"inputs": [],
					"name": "renounceOwnership",
					"outputs": [],
					"stateMutability": "nonpayable",
					"type": "function"
				},
				{
					"inputs": [
						{
							"internalType": "uint256",
							"name": "_nativeToken",
							"type": "uint256"
						},
						{
							"internalType": "address",
							"name": "_wallet",
							"type": "address"
						}
					],
					"name": "send",
					"outputs": [],
					"stateMutability": "nonpayable",
					"type": "function"
				},
				{
					"inputs": [
						{
							"internalType": "address",
							"name": "newOwner",
							"type": "address"
						}
					],
					"name": "transferOwnership",
					"outputs": [],
					"stateMutability": "nonpayable",
					"type": "function"
				}
			],
			"devdoc": {
				"errors": {
					"OwnableInvalidOwner(address)": [
						{
							"details": "The owner is not a valid owner account. (eg. `address(0)`)"
						}
					],
					"OwnableUnauthorizedAccount(address)": [
						{
							"details": "The caller account is not authorized to perform an operation."
						}
					]
				},
				"kind": "dev",
				"methods": {
					"owner()": {
						"details": "Returns the address of the current owner."
					},
					"renounceOwnership()": {
						"details": "Leaves the contract without owner. It will not be possible to call `onlyOwner` functions. Can only be called by the current owner. NOTE: Renouncing ownership will leave the contract without an owner, thereby disabling any functionality that is only available to the owner."
					},
					"transferOwnership(address)": {
						"details": "Transfers ownership of the contract to a new account (`newOwner`). Can only be called by the current owner."
					}
				},
				"version": 1
			},
			"evm": {
				"assembly": "    /* \"cocoaland/Pools/BaseSepoliapool.sol\":121:1902  contract BaseCocoaLandPool is Ownable {... */\n  mstore(0x40, 0x80)\n    /* \"cocoaland/Pools/BaseSepoliapool.sol\":346:419  constructor(address initialOwner) Ownable(initialOwner){... */\n  callvalue\n  dup1\n  iszero\n  tag_1\n  jumpi\n  0x00\n  dup1\n  revert\ntag_1:\n  pop\n  mload(0x40)\n  sub(codesize, bytecodeSize)\n  dup1\n  bytecodeSize\n  dup4\n  codecopy\n  dup2\n  dup2\n  add\n  0x40\n  mstore\n  dup2\n  add\n  swap1\n  tag_2\n  swap2\n  swap1\n  tag_3\n  jump\t// in\ntag_2:\n    /* \"cocoaland/Pools/BaseSepoliapool.sol\":388:400  initialOwner */\n  dup1\n    /* \"@openzeppelin/contracts/access/Ownable.sol\":1297:1298  0 */\n  0x00\n    /* \"@openzeppelin/contracts/access/Ownable.sol\":1273:1299  initialOwner == address(0) */\n  0xffffffffffffffffffffffffffffffffffffffff\n  and\n    /* \"@openzeppelin/contracts/access/Ownable.sol\":1273:1285  initialOwner */\n  dup2\n    /* \"@openzeppelin/contracts/access/Ownable.sol\":1273:1299  initialOwner == address(0) */\n  0xffffffffffffffffffffffffffffffffffffffff\n  and\n  sub\n    /* \"@openzeppelin/contracts/access/Ownable.sol\":1269:1364  if (initialOwner == address(0)) {... */\n  tag_7\n  jumpi\n    /* \"@openzeppelin/contracts/access/Ownable.sol\":1350:1351  0 */\n  0x00\n    /* \"@openzeppelin/contracts/access/Ownable.sol\":1322:1353  OwnableInvalidOwner(address(0)) */\n  mload(0x40)\n  0x1e4fbdf700000000000000000000000000000000000000000000000000000000\n  dup2\n  mstore\n  0x04\n  add\n  tag_8\n  swap2\n  swap1\n  tag_9\n  jump\t// in\ntag_8:\n  mload(0x40)\n  dup1\n  swap2\n  sub\n  swap1\n  revert\n    /* \"@openzeppelin/contracts/access/Ownable.sol\":1269:1364  if (initialOwner == address(0)) {... */\ntag_7:\n    /* \"@openzeppelin/contracts/access/Ownable.sol\":1373:1405  _transferOwnership(initialOwner) */\n  tag_10\n    /* \"@openzeppelin/contracts/access/Ownable.sol\":1392:1404  initialOwner */\n  dup2\n    /* \"@openzeppelin/contracts/access/Ownable.sol\":1373:1391  _transferOwnership */\n  shl(0x20, tag_11)\n    /* \"@openzeppelin/contracts/access/Ownable.sol\":1373:1405  _transferOwnership(initialOwner) */\n  0x20\n  shr\n  jump\t// in\ntag_10:\n    /* \"@openzeppelin/contracts/access/Ownable.sol\":1225:1412  constructor(address initialOwner) {... */\n  pop\n    /* \"cocoaland/Pools/BaseSepoliapool.sol\":346:419  constructor(address initialOwner) Ownable(initialOwner){... */\n  pop\n    /* \"cocoaland/Pools/BaseSepoliapool.sol\":121:1902  contract BaseCocoaLandPool is Ownable {... */\n  jump(tag_13)\n    /* \"@openzeppelin/contracts/access/Ownable.sol\":2912:3099  function _transferOwnership(address newOwner) internal virtual {... */\ntag_11:\n    /* \"@openzeppelin/contracts/access/Ownable.sol\":2985:3001  address oldOwner */\n  0x00\n    /* \"@openzeppelin/contracts/access/Ownable.sol\":3004:3010  _owner */\n  dup1\n  0x00\n  swap1\n  sload\n  swap1\n  0x0100\n  exp\n  swap1\n  div\n  0xffffffffffffffffffffffffffffffffffffffff\n  and\n    /* \"@openzeppelin/contracts/access/Ownable.sol\":2985:3010  address oldOwner = _owner */\n  swap1\n  pop\n    /* \"@openzeppelin/contracts/access/Ownable.sol\":3029:3037  newOwner */\n  dup2\n    /* \"@openzeppelin/contracts/access/Ownable.sol\":3020:3026  _owner */\n  0x00\n  dup1\n    /* \"@openzeppelin/contracts/access/Ownable.sol\":3020:3037  _owner = newOwner */\n  0x0100\n  exp\n  dup2\n  sload\n  dup2\n  0xffffffffffffffffffffffffffffffffffffffff\n  mul\n  not\n  and\n  swap1\n  dup4\n  0xffffffffffffffffffffffffffffffffffffffff\n  and\n  mul\n  or\n  swap1\n  sstore\n  pop\n    /* \"@openzeppelin/contracts/access/Ownable.sol\":3083:3091  newOwner */\n  dup2\n    /* \"@openzeppelin/contracts/access/Ownable.sol\":3052:3092  OwnershipTransferred(oldOwner, newOwner) */\n  0xffffffffffffffffffffffffffffffffffffffff\n  and\n    /* \"@openzeppelin/contracts/access/Ownable.sol\":3073:3081  oldOwner */\n  dup2\n    /* \"@openzeppelin/contracts/access/Ownable.sol\":3052:3092  OwnershipTransferred(oldOwner, newOwner) */\n  0xffffffffffffffffffffffffffffffffffffffff\n  and\n  0x8be0079c531659141344cd1fd0a4f28419497f9722a3daafe3b4186f6b6457e0\n  mload(0x40)\n  mload(0x40)\n  dup1\n  swap2\n  sub\n  swap1\n  log3\n    /* \"@openzeppelin/contracts/access/Ownable.sol\":2975:3099  {... */\n  pop\n    /* \"@openzeppelin/contracts/access/Ownable.sol\":2912:3099  function _transferOwnership(address newOwner) internal virtual {... */\n  pop\n  jump\t// out\n    /* \"#utility.yul\":88:205   */\ntag_16:\n    /* \"#utility.yul\":197:198   */\n  0x00\n    /* \"#utility.yul\":194:195   */\n  dup1\n    /* \"#utility.yul\":187:199   */\n  revert\n    /* \"#utility.yul\":334:460   */\ntag_18:\n    /* \"#utility.yul\":371:378   */\n  0x00\n    /* \"#utility.yul\":411:453   */\n  0xffffffffffffffffffffffffffffffffffffffff\n    /* \"#utility.yul\":404:409   */\n  dup3\n    /* \"#utility.yul\":400:454   */\n  and\n    /* \"#utility.yul\":389:454   */\n  swap1\n  pop\n    /* \"#utility.yul\":334:460   */\n  swap2\n  swap1\n  pop\n  jump\t// out\n    /* \"#utility.yul\":466:562   */\ntag_19:\n    /* \"#utility.yul\":503:510   */\n  0x00\n    /* \"#utility.yul\":532:556   */\n  tag_29\n    /* \"#utility.yul\":550:555   */\n  dup3\n    /* \"#utility.yul\":532:556   */\n  tag_18\n  jump\t// in\ntag_29:\n    /* \"#utility.yul\":521:556   */\n  swap1\n  pop\n    /* \"#utility.yul\":466:562   */\n  swap2\n  swap1\n  pop\n  jump\t// out\n    /* \"#utility.yul\":568:690   */\ntag_20:\n    /* \"#utility.yul\":641:665   */\n  tag_31\n    /* \"#utility.yul\":659:664   */\n  dup2\n    /* \"#utility.yul\":641:665   */\n  tag_19\n  jump\t// in\ntag_31:\n    /* \"#utility.yul\":634:639   */\n  dup2\n    /* \"#utility.yul\":631:666   */\n  eq\n    /* \"#utility.yul\":621:684   */\n  tag_32\n  jumpi\n    /* \"#utility.yul\":680:681   */\n  0x00\n    /* \"#utility.yul\":677:678   */\n  dup1\n    /* \"#utility.yul\":670:682   */\n  revert\n    /* \"#utility.yul\":621:684   */\ntag_32:\n    /* \"#utility.yul\":568:690   */\n  pop\n  jump\t// out\n    /* \"#utility.yul\":696:839   */\ntag_21:\n    /* \"#utility.yul\":753:758   */\n  0x00\n    /* \"#utility.yul\":784:790   */\n  dup2\n    /* \"#utility.yul\":778:791   */\n  mload\n    /* \"#utility.yul\":769:791   */\n  swap1\n  pop\n    /* \"#utility.yul\":800:833   */\n  tag_34\n    /* \"#utility.yul\":827:832   */\n  dup2\n    /* \"#utility.yul\":800:833   */\n  tag_20\n  jump\t// in\ntag_34:\n    /* \"#utility.yul\":696:839   */\n  swap3\n  swap2\n  pop\n  pop\n  jump\t// out\n    /* \"#utility.yul\":845:1196   */\ntag_3:\n    /* \"#utility.yul\":915:921   */\n  0x00\n    /* \"#utility.yul\":964:966   */\n  0x20\n    /* \"#utility.yul\":952:961   */\n  dup3\n    /* \"#utility.yul\":943:950   */\n  dup5\n    /* \"#utility.yul\":939:962   */\n  sub\n    /* \"#utility.yul\":935:967   */\n  slt\n    /* \"#utility.yul\":932:1051   */\n  iszero\n  tag_36\n  jumpi\n    /* \"#utility.yul\":970:1049   */\n  tag_37\n  tag_16\n  jump\t// in\ntag_37:\n    /* \"#utility.yul\":932:1051   */\ntag_36:\n    /* \"#utility.yul\":1090:1091   */\n  0x00\n    /* \"#utility.yul\":1115:1179   */\n  tag_38\n    /* \"#utility.yul\":1171:1178   */\n  dup5\n    /* \"#utility.yul\":1162:1168   */\n  dup3\n    /* \"#utility.yul\":1151:1160   */\n  dup6\n    /* \"#utility.yul\":1147:1169   */\n  add\n    /* \"#utility.yul\":1115:1179   */\n  tag_21\n  jump\t// in\ntag_38:\n    /* \"#utility.yul\":1105:1179   */\n  swap2\n  pop\n    /* \"#utility.yul\":1061:1189   */\n  pop\n    /* \"#utility.yul\":845:1196   */\n  swap3\n  swap2\n  pop\n  pop\n  jump\t// out\n    /* \"#utility.yul\":1202:1320   */\ntag_22:\n    /* \"#utility.yul\":1289:1313   */\n  tag_40\n    /* \"#utility.yul\":1307:1312   */\n  dup2\n    /* \"#utility.yul\":1289:1313   */\n  tag_19\n  jump\t// in\ntag_40:\n    /* \"#utility.yul\":1284:1287   */\n  dup3\n    /* \"#utility.yul\":1277:1314   */\n  mstore\n    /* \"#utility.yul\":1202:1320   */\n  pop\n  pop\n  jump\t// out\n    /* \"#utility.yul\":1326:1548   */\ntag_9:\n    /* \"#utility.yul\":1419:1423   */\n  0x00\n    /* \"#utility.yul\":1457:1459   */\n  0x20\n    /* \"#utility.yul\":1446:1455   */\n  dup3\n    /* \"#utility.yul\":1442:1460   */\n  add\n    /* \"#utility.yul\":1434:1460   */\n  swap1\n  pop\n    /* \"#utility.yul\":1470:1541   */\n  tag_42\n    /* \"#utility.yul\":1538:1539   */\n  0x00\n    /* \"#utility.yul\":1527:1536   */\n  dup4\n    /* \"#utility.yul\":1523:1540   */\n  add\n    /* \"#utility.yul\":1514:1520   */\n  dup5\n    /* \"#utility.yul\":1470:1541   */\n  tag_22\n  jump\t// in\ntag_42:\n    /* \"#utility.yul\":1326:1548   */\n  swap3\n  swap2\n  pop\n  pop\n  jump\t// out\n    /* \"cocoaland/Pools/BaseSepoliapool.sol\":121:1902  contract BaseCocoaLandPool is Ownable {... */\ntag_13:\n  dataSize(sub_0)\n  dup1\n  dataOffset(sub_0)\n  0x00\n  codecopy\n  0x00\n  return\nstop\n\nsub_0: assembly {\n        /* \"cocoaland/Pools/BaseSepoliapool.sol\":121:1902  contract BaseCocoaLandPool is Ownable {... */\n      mstore(0x40, 0x80)\n      jumpi(tag_1, lt(calldatasize, 0x04))\n      shr(0xe0, calldataload(0x00))\n      dup1\n      0x8c7d6f90\n      gt\n      tag_15\n      jumpi\n      dup1\n      0x9f64bd48\n      gt\n      tag_16\n      jumpi\n      dup1\n      0x9f64bd48\n      eq\n      tag_11\n      jumpi\n      dup1\n      0xb60d4288\n      eq\n      tag_12\n      jumpi\n      dup1\n      0xdc0d3dff\n      eq\n      tag_13\n      jumpi\n      dup1\n      0xf2fde38b\n      eq\n      tag_14\n      jumpi\n      jump(tag_1)\n    tag_16:\n      dup1\n      0x8c7d6f90\n      eq\n      tag_8\n      jumpi\n      dup1\n      0x8da5cb5b\n      eq\n      tag_9\n      jumpi\n      dup1\n      0x94f3f81d\n      eq\n      tag_10\n      jumpi\n      jump(tag_1)\n    tag_15:\n      dup1\n      0x0ef67887\n      eq\n      tag_2\n      jumpi\n      dup1\n      0x35b28153\n      eq\n      tag_3\n      jumpi\n      dup1\n      0x6d81a01b\n      eq\n      tag_4\n      jumpi\n      dup1\n      0x6daaaaef\n      eq\n      tag_5\n      jumpi\n      dup1\n      0x715018a6\n      eq\n      tag_6\n      jumpi\n      dup1\n      0x785d04f5\n      eq\n      tag_7\n      jumpi\n    tag_1:\n      0x00\n      dup1\n      revert\n        /* \"cocoaland/Pools/BaseSepoliapool.sol\":168:190  uint256 public Balance */\n    tag_2:\n      callvalue\n      dup1\n      iszero\n      tag_17\n      jumpi\n      0x00\n      dup1\n      revert\n    tag_17:\n      pop\n      tag_18\n      tag_19\n      jump\t// in\n    tag_18:\n      mload(0x40)\n      tag_20\n      swap2\n      swap1\n      tag_21\n      jump\t// in\n    tag_20:\n      mload(0x40)\n      dup1\n      swap2\n      sub\n      swap1\n      return\n        /* \"cocoaland/Pools/BaseSepoliapool.sol\":662:782  function addAuthorization(address _contract) public onlyOwner {... */\n    tag_3:\n      callvalue\n      dup1\n      iszero\n      tag_22\n      jumpi\n      0x00\n      dup1\n      revert\n    tag_22:\n      pop\n      tag_23\n      0x04\n      dup1\n      calldatasize\n      sub\n      dup2\n      add\n      swap1\n      tag_24\n      swap2\n      swap1\n      tag_25\n      jump\t// in\n    tag_24:\n      tag_26\n      jump\t// in\n    tag_23:\n      stop\n        /* \"cocoaland/Pools/BaseSepoliapool.sol\":237:278  mapping(address => bool) public Authorize */\n    tag_4:\n      callvalue\n      dup1\n      iszero\n      tag_27\n      jumpi\n      0x00\n      dup1\n      revert\n    tag_27:\n      pop\n      tag_28\n      0x04\n      dup1\n      calldatasize\n      sub\n      dup2\n      add\n      swap1\n      tag_29\n      swap2\n      swap1\n      tag_25\n      jump\t// in\n    tag_29:\n      tag_30\n      jump\t// in\n    tag_28:\n      mload(0x40)\n      tag_31\n      swap2\n      swap1\n      tag_32\n      jump\t// in\n    tag_31:\n      mload(0x40)\n      dup1\n      swap2\n      sub\n      swap1\n      return\n        /* \"cocoaland/Pools/BaseSepoliapool.sol\":1591:1699  function getLiquidtyAmount() public view returns (uint256) {... */\n    tag_5:\n      callvalue\n      dup1\n      iszero\n      tag_33\n      jumpi\n      0x00\n      dup1\n      revert\n    tag_33:\n      pop\n      tag_34\n      tag_35\n      jump\t// in\n    tag_34:\n      mload(0x40)\n      tag_36\n      swap2\n      swap1\n      tag_21\n      jump\t// in\n    tag_36:\n      mload(0x40)\n      dup1\n      swap2\n      sub\n      swap1\n      return\n        /* \"@openzeppelin/contracts/access/Ownable.sol\":2293:2394  function renounceOwnership() public virtual onlyOwner {... */\n    tag_6:\n      callvalue\n      dup1\n      iszero\n      tag_37\n      jumpi\n      0x00\n      dup1\n      revert\n    tag_37:\n      pop\n      tag_38\n      tag_39\n      jump\t// in\n    tag_38:\n      stop\n        /* \"cocoaland/Pools/BaseSepoliapool.sol\":1277:1509  function send(uint256 _nativeToken, address _wallet) external isAuthorized{... */\n    tag_7:\n      callvalue\n      dup1\n      iszero\n      tag_40\n      jumpi\n      0x00\n      dup1\n      revert\n    tag_40:\n      pop\n      tag_41\n      0x04\n      dup1\n      calldatasize\n      sub\n      dup2\n      add\n      swap1\n      tag_42\n      swap2\n      swap1\n      tag_43\n      jump\t// in\n    tag_42:\n      tag_44\n      jump\t// in\n    tag_41:\n      stop\n        /* \"cocoaland/Pools/BaseSepoliapool.sol\":285:337  mapping(address => uint256) public LiquidtyProviders */\n    tag_8:\n      callvalue\n      dup1\n      iszero\n      tag_45\n      jumpi\n      0x00\n      dup1\n      revert\n    tag_45:\n      pop\n      tag_46\n      0x04\n      dup1\n      calldatasize\n      sub\n      dup2\n      add\n      swap1\n      tag_47\n      swap2\n      swap1\n      tag_25\n      jump\t// in\n    tag_47:\n      tag_48\n      jump\t// in\n    tag_46:\n      mload(0x40)\n      tag_49\n      swap2\n      swap1\n      tag_21\n      jump\t// in\n    tag_49:\n      mload(0x40)\n      dup1\n      swap2\n      sub\n      swap1\n      return\n        /* \"@openzeppelin/contracts/access/Ownable.sol\":1638:1723  function owner() public view virtual returns (address) {... */\n    tag_9:\n      callvalue\n      dup1\n      iszero\n      tag_50\n      jumpi\n      0x00\n      dup1\n      revert\n    tag_50:\n      pop\n      tag_51\n      tag_52\n      jump\t// in\n    tag_51:\n      mload(0x40)\n      tag_53\n      swap2\n      swap1\n      tag_54\n      jump\t// in\n    tag_53:\n      mload(0x40)\n      dup1\n      swap2\n      sub\n      swap1\n      return\n        /* \"cocoaland/Pools/BaseSepoliapool.sol\":1783:1895  function removeAuthorization(address _contract) public onlyOwner {... */\n    tag_10:\n      callvalue\n      dup1\n      iszero\n      tag_55\n      jumpi\n      0x00\n      dup1\n      revert\n    tag_55:\n      pop\n      tag_56\n      0x04\n      dup1\n      calldatasize\n      sub\n      dup2\n      add\n      swap1\n      tag_57\n      swap2\n      swap1\n      tag_25\n      jump\t// in\n    tag_57:\n      tag_58\n      jump\t// in\n    tag_56:\n      stop\n        /* \"cocoaland/Pools/BaseSepoliapool.sol\":863:977  function getAuthorization(address _address) public view returns(bool){... */\n    tag_11:\n      callvalue\n      dup1\n      iszero\n      tag_59\n      jumpi\n      0x00\n      dup1\n      revert\n    tag_59:\n      pop\n      tag_60\n      0x04\n      dup1\n      calldatasize\n      sub\n      dup2\n      add\n      swap1\n      tag_61\n      swap2\n      swap1\n      tag_25\n      jump\t// in\n    tag_61:\n      tag_62\n      jump\t// in\n    tag_60:\n      mload(0x40)\n      tag_63\n      swap2\n      swap1\n      tag_32\n      jump\t// in\n    tag_63:\n      mload(0x40)\n      dup1\n      swap2\n      sub\n      swap1\n      return\n        /* \"cocoaland/Pools/BaseSepoliapool.sol\":1013:1199  function fund() public payable{... */\n    tag_12:\n      tag_64\n      tag_65\n      jump\t// in\n    tag_64:\n      stop\n        /* \"cocoaland/Pools/BaseSepoliapool.sol\":199:224  address[] public  funders */\n    tag_13:\n      callvalue\n      dup1\n      iszero\n      tag_66\n      jumpi\n      0x00\n      dup1\n      revert\n    tag_66:\n      pop\n      tag_67\n      0x04\n      dup1\n      calldatasize\n      sub\n      dup2\n      add\n      swap1\n      tag_68\n      swap2\n      swap1\n      tag_69\n      jump\t// in\n    tag_68:\n      tag_70\n      jump\t// in\n    tag_67:\n      mload(0x40)\n      tag_71\n      swap2\n      swap1\n      tag_54\n      jump\t// in\n    tag_71:\n      mload(0x40)\n      dup1\n      swap2\n      sub\n      swap1\n      return\n        /* \"@openzeppelin/contracts/access/Ownable.sol\":2543:2758  function transferOwnership(address newOwner) public virtual onlyOwner {... */\n    tag_14:\n      callvalue\n      dup1\n      iszero\n      tag_72\n      jumpi\n      0x00\n      dup1\n      revert\n    tag_72:\n      pop\n      tag_73\n      0x04\n      dup1\n      calldatasize\n      sub\n      dup2\n      add\n      swap1\n      tag_74\n      swap2\n      swap1\n      tag_25\n      jump\t// in\n    tag_74:\n      tag_75\n      jump\t// in\n    tag_73:\n      stop\n        /* \"cocoaland/Pools/BaseSepoliapool.sol\":168:190  uint256 public Balance */\n    tag_19:\n      sload(0x01)\n      dup2\n      jump\t// out\n        /* \"cocoaland/Pools/BaseSepoliapool.sol\":662:782  function addAuthorization(address _contract) public onlyOwner {... */\n    tag_26:\n        /* \"@openzeppelin/contracts/access/Ownable.sol\":1531:1544  _checkOwner() */\n      tag_77\n        /* \"@openzeppelin/contracts/access/Ownable.sol\":1531:1542  _checkOwner */\n      tag_78\n        /* \"@openzeppelin/contracts/access/Ownable.sol\":1531:1544  _checkOwner() */\n      jump\t// in\n    tag_77:\n        /* \"cocoaland/Pools/BaseSepoliapool.sol\":758:762  true */\n      0x01\n        /* \"cocoaland/Pools/BaseSepoliapool.sol\":735:744  Authorize */\n      0x03\n        /* \"cocoaland/Pools/BaseSepoliapool.sol\":735:755  Authorize[_contract] */\n      0x00\n        /* \"cocoaland/Pools/BaseSepoliapool.sol\":745:754  _contract */\n      dup4\n        /* \"cocoaland/Pools/BaseSepoliapool.sol\":735:755  Authorize[_contract] */\n      0xffffffffffffffffffffffffffffffffffffffff\n      and\n      0xffffffffffffffffffffffffffffffffffffffff\n      and\n      dup2\n      mstore\n      0x20\n      add\n      swap1\n      dup2\n      mstore\n      0x20\n      add\n      0x00\n      keccak256\n      0x00\n        /* \"cocoaland/Pools/BaseSepoliapool.sol\":735:762  Authorize[_contract] = true */\n      0x0100\n      exp\n      dup2\n      sload\n      dup2\n      0xff\n      mul\n      not\n      and\n      swap1\n      dup4\n      iszero\n      iszero\n      mul\n      or\n      swap1\n      sstore\n      pop\n        /* \"cocoaland/Pools/BaseSepoliapool.sol\":662:782  function addAuthorization(address _contract) public onlyOwner {... */\n      pop\n      jump\t// out\n        /* \"cocoaland/Pools/BaseSepoliapool.sol\":237:278  mapping(address => bool) public Authorize */\n    tag_30:\n      mstore(0x20, 0x03)\n      dup1\n      0x00\n      mstore\n      keccak256(0x00, 0x40)\n      0x00\n      swap2\n      pop\n      sload\n      swap1\n      0x0100\n      exp\n      swap1\n      div\n      0xff\n      and\n      dup2\n      jump\t// out\n        /* \"cocoaland/Pools/BaseSepoliapool.sol\":1591:1699  function getLiquidtyAmount() public view returns (uint256) {... */\n    tag_35:\n        /* \"cocoaland/Pools/BaseSepoliapool.sol\":1641:1648  uint256 */\n      0x00\n        /* \"cocoaland/Pools/BaseSepoliapool.sol\":1668:1689  address(this).balance */\n      selfbalance\n        /* \"cocoaland/Pools/BaseSepoliapool.sol\":1661:1689  return address(this).balance */\n      swap1\n      pop\n        /* \"cocoaland/Pools/BaseSepoliapool.sol\":1591:1699  function getLiquidtyAmount() public view returns (uint256) {... */\n      swap1\n      jump\t// out\n        /* \"@openzeppelin/contracts/access/Ownable.sol\":2293:2394  function renounceOwnership() public virtual onlyOwner {... */\n    tag_39:\n        /* \"@openzeppelin/contracts/access/Ownable.sol\":1531:1544  _checkOwner() */\n      tag_82\n        /* \"@openzeppelin/contracts/access/Ownable.sol\":1531:1542  _checkOwner */\n      tag_78\n        /* \"@openzeppelin/contracts/access/Ownable.sol\":1531:1544  _checkOwner() */\n      jump\t// in\n    tag_82:\n        /* \"@openzeppelin/contracts/access/Ownable.sol\":2357:2387  _transferOwnership(address(0)) */\n      tag_84\n        /* \"@openzeppelin/contracts/access/Ownable.sol\":2384:2385  0 */\n      0x00\n        /* \"@openzeppelin/contracts/access/Ownable.sol\":2357:2375  _transferOwnership */\n      tag_85\n        /* \"@openzeppelin/contracts/access/Ownable.sol\":2357:2387  _transferOwnership(address(0)) */\n      jump\t// in\n    tag_84:\n        /* \"@openzeppelin/contracts/access/Ownable.sol\":2293:2394  function renounceOwnership() public virtual onlyOwner {... */\n      jump\t// out\n        /* \"cocoaland/Pools/BaseSepoliapool.sol\":1277:1509  function send(uint256 _nativeToken, address _wallet) external isAuthorized{... */\n    tag_44:\n        /* \"cocoaland/Pools/BaseSepoliapool.sol\":488:497  Authorize */\n      0x03\n        /* \"cocoaland/Pools/BaseSepoliapool.sol\":488:509  Authorize[msg.sender] */\n      0x00\n        /* \"cocoaland/Pools/BaseSepoliapool.sol\":498:508  msg.sender */\n      caller\n        /* \"cocoaland/Pools/BaseSepoliapool.sol\":488:509  Authorize[msg.sender] */\n      0xffffffffffffffffffffffffffffffffffffffff\n      and\n      0xffffffffffffffffffffffffffffffffffffffff\n      and\n      dup2\n      mstore\n      0x20\n      add\n      swap1\n      dup2\n      mstore\n      0x20\n      add\n      0x00\n      keccak256\n      0x00\n      swap1\n      sload\n      swap1\n      0x0100\n      exp\n      swap1\n      div\n      0xff\n      and\n        /* \"cocoaland/Pools/BaseSepoliapool.sol\":480:557  require(Authorize[msg.sender], \"You are not authorized to use this function\") */\n      tag_87\n      jumpi\n      mload(0x40)\n      0x08c379a000000000000000000000000000000000000000000000000000000000\n      dup2\n      mstore\n      0x04\n      add\n      tag_88\n      swap1\n      tag_89\n      jump\t// in\n    tag_88:\n      mload(0x40)\n      dup1\n      swap2\n      sub\n      swap1\n      revert\n    tag_87:\n        /* \"cocoaland/Pools/BaseSepoliapool.sol\":1365:1381  bool callSuccess */\n      0x00\n        /* \"cocoaland/Pools/BaseSepoliapool.sol\":1394:1401  _wallet */\n      dup2\n        /* \"cocoaland/Pools/BaseSepoliapool.sol\":1386:1407  payable(_wallet).call */\n      0xffffffffffffffffffffffffffffffffffffffff\n      and\n        /* \"cocoaland/Pools/BaseSepoliapool.sol\":1415:1427  _nativeToken */\n      dup4\n        /* \"cocoaland/Pools/BaseSepoliapool.sol\":1386:1432  payable(_wallet).call{value: _nativeToken}(\"\") */\n      mload(0x40)\n      tag_91\n      swap1\n      tag_92\n      jump\t// in\n    tag_91:\n      0x00\n      mload(0x40)\n      dup1\n      dup4\n      sub\n      dup2\n      dup6\n      dup8\n      gas\n      call\n      swap3\n      pop\n      pop\n      pop\n      returndatasize\n      dup1\n      0x00\n      dup2\n      eq\n      tag_95\n      jumpi\n      mload(0x40)\n      swap2\n      pop\n      and(add(returndatasize, 0x3f), not(0x1f))\n      dup3\n      add\n      0x40\n      mstore\n      returndatasize\n      dup3\n      mstore\n      returndatasize\n      0x00\n      0x20\n      dup5\n      add\n      returndatacopy\n      jump(tag_94)\n    tag_95:\n      0x60\n      swap2\n      pop\n    tag_94:\n      pop\n        /* \"cocoaland/Pools/BaseSepoliapool.sol\":1364:1432  (bool callSuccess,) = payable(_wallet).call{value: _nativeToken}(\"\") */\n      pop\n      swap1\n      pop\n        /* \"cocoaland/Pools/BaseSepoliapool.sol\":1451:1462  callSuccess */\n      dup1\n        /* \"cocoaland/Pools/BaseSepoliapool.sol\":1443:1485  require(callSuccess, \"Transaction failed\") */\n      tag_96\n      jumpi\n      mload(0x40)\n      0x08c379a000000000000000000000000000000000000000000000000000000000\n      dup2\n      mstore\n      0x04\n      add\n      tag_97\n      swap1\n      tag_98\n      jump\t// in\n    tag_97:\n      mload(0x40)\n      dup1\n      swap2\n      sub\n      swap1\n      revert\n    tag_96:\n        /* \"cocoaland/Pools/BaseSepoliapool.sol\":1351:1509  {... */\n      pop\n        /* \"cocoaland/Pools/BaseSepoliapool.sol\":1277:1509  function send(uint256 _nativeToken, address _wallet) external isAuthorized{... */\n      pop\n      pop\n      jump\t// out\n        /* \"cocoaland/Pools/BaseSepoliapool.sol\":285:337  mapping(address => uint256) public LiquidtyProviders */\n    tag_48:\n      mstore(0x20, 0x04)\n      dup1\n      0x00\n      mstore\n      keccak256(0x00, 0x40)\n      0x00\n      swap2\n      pop\n      swap1\n      pop\n      sload\n      dup2\n      jump\t// out\n        /* \"@openzeppelin/contracts/access/Ownable.sol\":1638:1723  function owner() public view virtual returns (address) {... */\n    tag_52:\n        /* \"@openzeppelin/contracts/access/Ownable.sol\":1684:1691  address */\n      0x00\n        /* \"@openzeppelin/contracts/access/Ownable.sol\":1710:1716  _owner */\n      dup1\n      0x00\n      swap1\n      sload\n      swap1\n      0x0100\n      exp\n      swap1\n      div\n      0xffffffffffffffffffffffffffffffffffffffff\n      and\n        /* \"@openzeppelin/contracts/access/Ownable.sol\":1703:1716  return _owner */\n      swap1\n      pop\n        /* \"@openzeppelin/contracts/access/Ownable.sol\":1638:1723  function owner() public view virtual returns (address) {... */\n      swap1\n      jump\t// out\n        /* \"cocoaland/Pools/BaseSepoliapool.sol\":1783:1895  function removeAuthorization(address _contract) public onlyOwner {... */\n    tag_58:\n        /* \"@openzeppelin/contracts/access/Ownable.sol\":1531:1544  _checkOwner() */\n      tag_101\n        /* \"@openzeppelin/contracts/access/Ownable.sol\":1531:1542  _checkOwner */\n      tag_78\n        /* \"@openzeppelin/contracts/access/Ownable.sol\":1531:1544  _checkOwner() */\n      jump\t// in\n    tag_101:\n        /* \"cocoaland/Pools/BaseSepoliapool.sol\":1882:1887  false */\n      0x00\n        /* \"cocoaland/Pools/BaseSepoliapool.sol\":1859:1868  Authorize */\n      0x03\n        /* \"cocoaland/Pools/BaseSepoliapool.sol\":1859:1879  Authorize[_contract] */\n      0x00\n        /* \"cocoaland/Pools/BaseSepoliapool.sol\":1869:1878  _contract */\n      dup4\n        /* \"cocoaland/Pools/BaseSepoliapool.sol\":1859:1879  Authorize[_contract] */\n      0xffffffffffffffffffffffffffffffffffffffff\n      and\n      0xffffffffffffffffffffffffffffffffffffffff\n      and\n      dup2\n      mstore\n      0x20\n      add\n      swap1\n      dup2\n      mstore\n      0x20\n      add\n      0x00\n      keccak256\n      0x00\n        /* \"cocoaland/Pools/BaseSepoliapool.sol\":1859:1887  Authorize[_contract] = false */\n      0x0100\n      exp\n      dup2\n      sload\n      dup2\n      0xff\n      mul\n      not\n      and\n      swap1\n      dup4\n      iszero\n      iszero\n      mul\n      or\n      swap1\n      sstore\n      pop\n        /* \"cocoaland/Pools/BaseSepoliapool.sol\":1783:1895  function removeAuthorization(address _contract) public onlyOwner {... */\n      pop\n      jump\t// out\n        /* \"cocoaland/Pools/BaseSepoliapool.sol\":863:977  function getAuthorization(address _address) public view returns(bool){... */\n    tag_62:\n        /* \"cocoaland/Pools/BaseSepoliapool.sol\":927:931  bool */\n      0x00\n        /* \"cocoaland/Pools/BaseSepoliapool.sol\":950:959  Authorize */\n      0x03\n        /* \"cocoaland/Pools/BaseSepoliapool.sol\":950:969  Authorize[_address] */\n      0x00\n        /* \"cocoaland/Pools/BaseSepoliapool.sol\":960:968  _address */\n      dup4\n        /* \"cocoaland/Pools/BaseSepoliapool.sol\":950:969  Authorize[_address] */\n      0xffffffffffffffffffffffffffffffffffffffff\n      and\n      0xffffffffffffffffffffffffffffffffffffffff\n      and\n      dup2\n      mstore\n      0x20\n      add\n      swap1\n      dup2\n      mstore\n      0x20\n      add\n      0x00\n      keccak256\n      0x00\n      swap1\n      sload\n      swap1\n      0x0100\n      exp\n      swap1\n      div\n      0xff\n      and\n        /* \"cocoaland/Pools/BaseSepoliapool.sol\":943:969  return Authorize[_address] */\n      swap1\n      pop\n        /* \"cocoaland/Pools/BaseSepoliapool.sol\":863:977  function getAuthorization(address _address) public view returns(bool){... */\n      swap2\n      swap1\n      pop\n      jump\t// out\n        /* \"cocoaland/Pools/BaseSepoliapool.sol\":1013:1199  function fund() public payable{... */\n    tag_65:\n        /* \"cocoaland/Pools/BaseSepoliapool.sol\":1074:1075  0 */\n      0x00\n        /* \"cocoaland/Pools/BaseSepoliapool.sol\":1062:1071  msg.value */\n      callvalue\n        /* \"cocoaland/Pools/BaseSepoliapool.sol\":1062:1075  msg.value > 0 */\n      gt\n        /* \"cocoaland/Pools/BaseSepoliapool.sol\":1054:1097  require(msg.value > 0, \"Amount not enough\") */\n      tag_105\n      jumpi\n      mload(0x40)\n      0x08c379a000000000000000000000000000000000000000000000000000000000\n      dup2\n      mstore\n      0x04\n      add\n      tag_106\n      swap1\n      tag_107\n      jump\t// in\n    tag_106:\n      mload(0x40)\n      dup1\n      swap2\n      sub\n      swap1\n      revert\n    tag_105:\n        /* \"cocoaland/Pools/BaseSepoliapool.sol\":1141:1150  msg.value */\n      callvalue\n        /* \"cocoaland/Pools/BaseSepoliapool.sol\":1108:1125  LiquidtyProviders */\n      0x04\n        /* \"cocoaland/Pools/BaseSepoliapool.sol\":1108:1137  LiquidtyProviders[msg.sender] */\n      0x00\n        /* \"cocoaland/Pools/BaseSepoliapool.sol\":1126:1136  msg.sender */\n      caller\n        /* \"cocoaland/Pools/BaseSepoliapool.sol\":1108:1137  LiquidtyProviders[msg.sender] */\n      0xffffffffffffffffffffffffffffffffffffffff\n      and\n      0xffffffffffffffffffffffffffffffffffffffff\n      and\n      dup2\n      mstore\n      0x20\n      add\n      swap1\n      dup2\n      mstore\n      0x20\n      add\n      0x00\n      keccak256\n      0x00\n        /* \"cocoaland/Pools/BaseSepoliapool.sol\":1108:1150  LiquidtyProviders[msg.sender] += msg.value */\n      dup3\n      dup3\n      sload\n      tag_108\n      swap2\n      swap1\n      tag_109\n      jump\t// in\n    tag_108:\n      swap3\n      pop\n      pop\n      dup2\n      swap1\n      sstore\n      pop\n        /* \"cocoaland/Pools/BaseSepoliapool.sol\":1161:1168  funders */\n      0x02\n        /* \"cocoaland/Pools/BaseSepoliapool.sol\":1174:1184  msg.sender */\n      caller\n        /* \"cocoaland/Pools/BaseSepoliapool.sol\":1161:1185  funders.push(msg.sender) */\n      swap1\n      dup1\n      0x01\n      dup2\n      sload\n      add\n      dup1\n      dup3\n      sstore\n      dup1\n      swap2\n      pop\n      pop\n      0x01\n      swap1\n      sub\n      swap1\n      0x00\n      mstore\n      keccak256(0x00, 0x20)\n      add\n      0x00\n      swap1\n      swap2\n      swap1\n      swap2\n      swap1\n      swap2\n      0x0100\n      exp\n      dup2\n      sload\n      dup2\n      0xffffffffffffffffffffffffffffffffffffffff\n      mul\n      not\n      and\n      swap1\n      dup4\n      0xffffffffffffffffffffffffffffffffffffffff\n      and\n      mul\n      or\n      swap1\n      sstore\n      pop\n        /* \"cocoaland/Pools/BaseSepoliapool.sol\":1013:1199  function fund() public payable{... */\n      jump\t// out\n        /* \"cocoaland/Pools/BaseSepoliapool.sol\":199:224  address[] public  funders */\n    tag_70:\n      0x02\n      dup2\n      dup2\n      sload\n      dup2\n      lt\n      tag_111\n      jumpi\n      0x00\n      dup1\n      revert\n    tag_111:\n      swap1\n      0x00\n      mstore\n      keccak256(0x00, 0x20)\n      add\n      0x00\n      swap2\n      pop\n      sload\n      swap1\n      0x0100\n      exp\n      swap1\n      div\n      0xffffffffffffffffffffffffffffffffffffffff\n      and\n      dup2\n      jump\t// out\n        /* \"@openzeppelin/contracts/access/Ownable.sol\":2543:2758  function transferOwnership(address newOwner) public virtual onlyOwner {... */\n    tag_75:\n        /* \"@openzeppelin/contracts/access/Ownable.sol\":1531:1544  _checkOwner() */\n      tag_114\n        /* \"@openzeppelin/contracts/access/Ownable.sol\":1531:1542  _checkOwner */\n      tag_78\n        /* \"@openzeppelin/contracts/access/Ownable.sol\":1531:1544  _checkOwner() */\n      jump\t// in\n    tag_114:\n        /* \"@openzeppelin/contracts/access/Ownable.sol\":2647:2648  0 */\n      0x00\n        /* \"@openzeppelin/contracts/access/Ownable.sol\":2627:2649  newOwner == address(0) */\n      0xffffffffffffffffffffffffffffffffffffffff\n      and\n        /* \"@openzeppelin/contracts/access/Ownable.sol\":2627:2635  newOwner */\n      dup2\n        /* \"@openzeppelin/contracts/access/Ownable.sol\":2627:2649  newOwner == address(0) */\n      0xffffffffffffffffffffffffffffffffffffffff\n      and\n      sub\n        /* \"@openzeppelin/contracts/access/Ownable.sol\":2623:2714  if (newOwner == address(0)) {... */\n      tag_116\n      jumpi\n        /* \"@openzeppelin/contracts/access/Ownable.sol\":2700:2701  0 */\n      0x00\n        /* \"@openzeppelin/contracts/access/Ownable.sol\":2672:2703  OwnableInvalidOwner(address(0)) */\n      mload(0x40)\n      0x1e4fbdf700000000000000000000000000000000000000000000000000000000\n      dup2\n      mstore\n      0x04\n      add\n      tag_117\n      swap2\n      swap1\n      tag_54\n      jump\t// in\n    tag_117:\n      mload(0x40)\n      dup1\n      swap2\n      sub\n      swap1\n      revert\n        /* \"@openzeppelin/contracts/access/Ownable.sol\":2623:2714  if (newOwner == address(0)) {... */\n    tag_116:\n        /* \"@openzeppelin/contracts/access/Ownable.sol\":2723:2751  _transferOwnership(newOwner) */\n      tag_118\n        /* \"@openzeppelin/contracts/access/Ownable.sol\":2742:2750  newOwner */\n      dup2\n        /* \"@openzeppelin/contracts/access/Ownable.sol\":2723:2741  _transferOwnership */\n      tag_85\n        /* \"@openzeppelin/contracts/access/Ownable.sol\":2723:2751  _transferOwnership(newOwner) */\n      jump\t// in\n    tag_118:\n        /* \"@openzeppelin/contracts/access/Ownable.sol\":2543:2758  function transferOwnership(address newOwner) public virtual onlyOwner {... */\n      pop\n      jump\t// out\n        /* \"@openzeppelin/contracts/access/Ownable.sol\":1796:1958  function _checkOwner() internal view virtual {... */\n    tag_78:\n        /* \"@openzeppelin/contracts/access/Ownable.sol\":1866:1878  _msgSender() */\n      tag_120\n        /* \"@openzeppelin/contracts/access/Ownable.sol\":1866:1876  _msgSender */\n      tag_121\n        /* \"@openzeppelin/contracts/access/Ownable.sol\":1866:1878  _msgSender() */\n      jump\t// in\n    tag_120:\n        /* \"@openzeppelin/contracts/access/Ownable.sol\":1855:1878  owner() != _msgSender() */\n      0xffffffffffffffffffffffffffffffffffffffff\n      and\n        /* \"@openzeppelin/contracts/access/Ownable.sol\":1855:1862  owner() */\n      tag_122\n        /* \"@openzeppelin/contracts/access/Ownable.sol\":1855:1860  owner */\n      tag_52\n        /* \"@openzeppelin/contracts/access/Ownable.sol\":1855:1862  owner() */\n      jump\t// in\n    tag_122:\n        /* \"@openzeppelin/contracts/access/Ownable.sol\":1855:1878  owner() != _msgSender() */\n      0xffffffffffffffffffffffffffffffffffffffff\n      and\n      eq\n        /* \"@openzeppelin/contracts/access/Ownable.sol\":1851:1952  if (owner() != _msgSender()) {... */\n      tag_123\n      jumpi\n        /* \"@openzeppelin/contracts/access/Ownable.sol\":1928:1940  _msgSender() */\n      tag_124\n        /* \"@openzeppelin/contracts/access/Ownable.sol\":1928:1938  _msgSender */\n      tag_121\n        /* \"@openzeppelin/contracts/access/Ownable.sol\":1928:1940  _msgSender() */\n      jump\t// in\n    tag_124:\n        /* \"@openzeppelin/contracts/access/Ownable.sol\":1901:1941  OwnableUnauthorizedAccount(_msgSender()) */\n      mload(0x40)\n      0x118cdaa700000000000000000000000000000000000000000000000000000000\n      dup2\n      mstore\n      0x04\n      add\n      tag_125\n      swap2\n      swap1\n      tag_54\n      jump\t// in\n    tag_125:\n      mload(0x40)\n      dup1\n      swap2\n      sub\n      swap1\n      revert\n        /* \"@openzeppelin/contracts/access/Ownable.sol\":1851:1952  if (owner() != _msgSender()) {... */\n    tag_123:\n        /* \"@openzeppelin/contracts/access/Ownable.sol\":1796:1958  function _checkOwner() internal view virtual {... */\n      jump\t// out\n        /* \"@openzeppelin/contracts/access/Ownable.sol\":2912:3099  function _transferOwnership(address newOwner) internal virtual {... */\n    tag_85:\n        /* \"@openzeppelin/contracts/access/Ownable.sol\":2985:3001  address oldOwner */\n      0x00\n        /* \"@openzeppelin/contracts/access/Ownable.sol\":3004:3010  _owner */\n      dup1\n      0x00\n      swap1\n      sload\n      swap1\n      0x0100\n      exp\n      swap1\n      div\n      0xffffffffffffffffffffffffffffffffffffffff\n      and\n        /* \"@openzeppelin/contracts/access/Ownable.sol\":2985:3010  address oldOwner = _owner */\n      swap1\n      pop\n        /* \"@openzeppelin/contracts/access/Ownable.sol\":3029:3037  newOwner */\n      dup2\n        /* \"@openzeppelin/contracts/access/Ownable.sol\":3020:3026  _owner */\n      0x00\n      dup1\n        /* \"@openzeppelin/contracts/access/Ownable.sol\":3020:3037  _owner = newOwner */\n      0x0100\n      exp\n      dup2\n      sload\n      dup2\n      0xffffffffffffffffffffffffffffffffffffffff\n      mul\n      not\n      and\n      swap1\n      dup4\n      0xffffffffffffffffffffffffffffffffffffffff\n      and\n      mul\n      or\n      swap1\n      sstore\n      pop\n        /* \"@openzeppelin/contracts/access/Ownable.sol\":3083:3091  newOwner */\n      dup2\n        /* \"@openzeppelin/contracts/access/Ownable.sol\":3052:3092  OwnershipTransferred(oldOwner, newOwner) */\n      0xffffffffffffffffffffffffffffffffffffffff\n      and\n        /* \"@openzeppelin/contracts/access/Ownable.sol\":3073:3081  oldOwner */\n      dup2\n        /* \"@openzeppelin/contracts/access/Ownable.sol\":3052:3092  OwnershipTransferred(oldOwner, newOwner) */\n      0xffffffffffffffffffffffffffffffffffffffff\n      and\n      0x8be0079c531659141344cd1fd0a4f28419497f9722a3daafe3b4186f6b6457e0\n      mload(0x40)\n      mload(0x40)\n      dup1\n      swap2\n      sub\n      swap1\n      log3\n        /* \"@openzeppelin/contracts/access/Ownable.sol\":2975:3099  {... */\n      pop\n        /* \"@openzeppelin/contracts/access/Ownable.sol\":2912:3099  function _transferOwnership(address newOwner) internal virtual {... */\n      pop\n      jump\t// out\n        /* \"@openzeppelin/contracts/utils/Context.sol\":656:752  function _msgSender() internal view virtual returns (address) {... */\n    tag_121:\n        /* \"@openzeppelin/contracts/utils/Context.sol\":709:716  address */\n      0x00\n        /* \"@openzeppelin/contracts/utils/Context.sol\":735:745  msg.sender */\n      caller\n        /* \"@openzeppelin/contracts/utils/Context.sol\":728:745  return msg.sender */\n      swap1\n      pop\n        /* \"@openzeppelin/contracts/utils/Context.sol\":656:752  function _msgSender() internal view virtual returns (address) {... */\n      swap1\n      jump\t// out\n        /* \"#utility.yul\":7:84   */\n    tag_128:\n        /* \"#utility.yul\":44:51   */\n      0x00\n        /* \"#utility.yul\":73:78   */\n      dup2\n        /* \"#utility.yul\":62:78   */\n      swap1\n      pop\n        /* \"#utility.yul\":7:84   */\n      swap2\n      swap1\n      pop\n      jump\t// out\n        /* \"#utility.yul\":90:208   */\n    tag_129:\n        /* \"#utility.yul\":177:201   */\n      tag_156\n        /* \"#utility.yul\":195:200   */\n      dup2\n        /* \"#utility.yul\":177:201   */\n      tag_128\n      jump\t// in\n    tag_156:\n        /* \"#utility.yul\":172:175   */\n      dup3\n        /* \"#utility.yul\":165:202   */\n      mstore\n        /* \"#utility.yul\":90:208   */\n      pop\n      pop\n      jump\t// out\n        /* \"#utility.yul\":214:436   */\n    tag_21:\n        /* \"#utility.yul\":307:311   */\n      0x00\n        /* \"#utility.yul\":345:347   */\n      0x20\n        /* \"#utility.yul\":334:343   */\n      dup3\n        /* \"#utility.yul\":330:348   */\n      add\n        /* \"#utility.yul\":322:348   */\n      swap1\n      pop\n        /* \"#utility.yul\":358:429   */\n      tag_158\n        /* \"#utility.yul\":426:427   */\n      0x00\n        /* \"#utility.yul\":415:424   */\n      dup4\n        /* \"#utility.yul\":411:428   */\n      add\n        /* \"#utility.yul\":402:408   */\n      dup5\n        /* \"#utility.yul\":358:429   */\n      tag_129\n      jump\t// in\n    tag_158:\n        /* \"#utility.yul\":214:436   */\n      swap3\n      swap2\n      pop\n      pop\n      jump\t// out\n        /* \"#utility.yul\":523:640   */\n    tag_131:\n        /* \"#utility.yul\":632:633   */\n      0x00\n        /* \"#utility.yul\":629:630   */\n      dup1\n        /* \"#utility.yul\":622:634   */\n      revert\n        /* \"#utility.yul\":769:895   */\n    tag_133:\n        /* \"#utility.yul\":806:813   */\n      0x00\n        /* \"#utility.yul\":846:888   */\n      0xffffffffffffffffffffffffffffffffffffffff\n        /* \"#utility.yul\":839:844   */\n      dup3\n        /* \"#utility.yul\":835:889   */\n      and\n        /* \"#utility.yul\":824:889   */\n      swap1\n      pop\n        /* \"#utility.yul\":769:895   */\n      swap2\n      swap1\n      pop\n      jump\t// out\n        /* \"#utility.yul\":901:997   */\n    tag_134:\n        /* \"#utility.yul\":938:945   */\n      0x00\n        /* \"#utility.yul\":967:991   */\n      tag_164\n        /* \"#utility.yul\":985:990   */\n      dup3\n        /* \"#utility.yul\":967:991   */\n      tag_133\n      jump\t// in\n    tag_164:\n        /* \"#utility.yul\":956:991   */\n      swap1\n      pop\n        /* \"#utility.yul\":901:997   */\n      swap2\n      swap1\n      pop\n      jump\t// out\n        /* \"#utility.yul\":1003:1125   */\n    tag_135:\n        /* \"#utility.yul\":1076:1100   */\n      tag_166\n        /* \"#utility.yul\":1094:1099   */\n      dup2\n        /* \"#utility.yul\":1076:1100   */\n      tag_134\n      jump\t// in\n    tag_166:\n        /* \"#utility.yul\":1069:1074   */\n      dup2\n        /* \"#utility.yul\":1066:1101   */\n      eq\n        /* \"#utility.yul\":1056:1119   */\n      tag_167\n      jumpi\n        /* \"#utility.yul\":1115:1116   */\n      0x00\n        /* \"#utility.yul\":1112:1113   */\n      dup1\n        /* \"#utility.yul\":1105:1117   */\n      revert\n        /* \"#utility.yul\":1056:1119   */\n    tag_167:\n        /* \"#utility.yul\":1003:1125   */\n      pop\n      jump\t// out\n        /* \"#utility.yul\":1131:1270   */\n    tag_136:\n        /* \"#utility.yul\":1177:1182   */\n      0x00\n        /* \"#utility.yul\":1215:1221   */\n      dup2\n        /* \"#utility.yul\":1202:1222   */\n      calldataload\n        /* \"#utility.yul\":1193:1222   */\n      swap1\n      pop\n        /* \"#utility.yul\":1231:1264   */\n      tag_169\n        /* \"#utility.yul\":1258:1263   */\n      dup2\n        /* \"#utility.yul\":1231:1264   */\n      tag_135\n      jump\t// in\n    tag_169:\n        /* \"#utility.yul\":1131:1270   */\n      swap3\n      swap2\n      pop\n      pop\n      jump\t// out\n        /* \"#utility.yul\":1276:1605   */\n    tag_25:\n        /* \"#utility.yul\":1335:1341   */\n      0x00\n        /* \"#utility.yul\":1384:1386   */\n      0x20\n        /* \"#utility.yul\":1372:1381   */\n      dup3\n        /* \"#utility.yul\":1363:1370   */\n      dup5\n        /* \"#utility.yul\":1359:1382   */\n      sub\n        /* \"#utility.yul\":1355:1387   */\n      slt\n        /* \"#utility.yul\":1352:1471   */\n      iszero\n      tag_171\n      jumpi\n        /* \"#utility.yul\":1390:1469   */\n      tag_172\n      tag_131\n      jump\t// in\n    tag_172:\n        /* \"#utility.yul\":1352:1471   */\n    tag_171:\n        /* \"#utility.yul\":1510:1511   */\n      0x00\n        /* \"#utility.yul\":1535:1588   */\n      tag_173\n        /* \"#utility.yul\":1580:1587   */\n      dup5\n        /* \"#utility.yul\":1571:1577   */\n      dup3\n        /* \"#utility.yul\":1560:1569   */\n      dup6\n        /* \"#utility.yul\":1556:1578   */\n      add\n        /* \"#utility.yul\":1535:1588   */\n      tag_136\n      jump\t// in\n    tag_173:\n        /* \"#utility.yul\":1525:1588   */\n      swap2\n      pop\n        /* \"#utility.yul\":1481:1598   */\n      pop\n        /* \"#utility.yul\":1276:1605   */\n      swap3\n      swap2\n      pop\n      pop\n      jump\t// out\n        /* \"#utility.yul\":1611:1701   */\n    tag_137:\n        /* \"#utility.yul\":1645:1652   */\n      0x00\n        /* \"#utility.yul\":1688:1693   */\n      dup2\n        /* \"#utility.yul\":1681:1694   */\n      iszero\n        /* \"#utility.yul\":1674:1695   */\n      iszero\n        /* \"#utility.yul\":1663:1695   */\n      swap1\n      pop\n        /* \"#utility.yul\":1611:1701   */\n      swap2\n      swap1\n      pop\n      jump\t// out\n        /* \"#utility.yul\":1707:1816   */\n    tag_138:\n        /* \"#utility.yul\":1788:1809   */\n      tag_176\n        /* \"#utility.yul\":1803:1808   */\n      dup2\n        /* \"#utility.yul\":1788:1809   */\n      tag_137\n      jump\t// in\n    tag_176:\n        /* \"#utility.yul\":1783:1786   */\n      dup3\n        /* \"#utility.yul\":1776:1810   */\n      mstore\n        /* \"#utility.yul\":1707:1816   */\n      pop\n      pop\n      jump\t// out\n        /* \"#utility.yul\":1822:2032   */\n    tag_32:\n        /* \"#utility.yul\":1909:1913   */\n      0x00\n        /* \"#utility.yul\":1947:1949   */\n      0x20\n        /* \"#utility.yul\":1936:1945   */\n      dup3\n        /* \"#utility.yul\":1932:1950   */\n      add\n        /* \"#utility.yul\":1924:1950   */\n      swap1\n      pop\n        /* \"#utility.yul\":1960:2025   */\n      tag_178\n        /* \"#utility.yul\":2022:2023   */\n      0x00\n        /* \"#utility.yul\":2011:2020   */\n      dup4\n        /* \"#utility.yul\":2007:2024   */\n      add\n        /* \"#utility.yul\":1998:2004   */\n      dup5\n        /* \"#utility.yul\":1960:2025   */\n      tag_138\n      jump\t// in\n    tag_178:\n        /* \"#utility.yul\":1822:2032   */\n      swap3\n      swap2\n      pop\n      pop\n      jump\t// out\n        /* \"#utility.yul\":2038:2160   */\n    tag_139:\n        /* \"#utility.yul\":2111:2135   */\n      tag_180\n        /* \"#utility.yul\":2129:2134   */\n      dup2\n        /* \"#utility.yul\":2111:2135   */\n      tag_128\n      jump\t// in\n    tag_180:\n        /* \"#utility.yul\":2104:2109   */\n      dup2\n        /* \"#utility.yul\":2101:2136   */\n      eq\n        /* \"#utility.yul\":2091:2154   */\n      tag_181\n      jumpi\n        /* \"#utility.yul\":2150:2151   */\n      0x00\n        /* \"#utility.yul\":2147:2148   */\n      dup1\n        /* \"#utility.yul\":2140:2152   */\n      revert\n        /* \"#utility.yul\":2091:2154   */\n    tag_181:\n        /* \"#utility.yul\":2038:2160   */\n      pop\n      jump\t// out\n        /* \"#utility.yul\":2166:2305   */\n    tag_140:\n        /* \"#utility.yul\":2212:2217   */\n      0x00\n        /* \"#utility.yul\":2250:2256   */\n      dup2\n        /* \"#utility.yul\":2237:2257   */\n      calldataload\n        /* \"#utility.yul\":2228:2257   */\n      swap1\n      pop\n        /* \"#utility.yul\":2266:2299   */\n      tag_183\n        /* \"#utility.yul\":2293:2298   */\n      dup2\n        /* \"#utility.yul\":2266:2299   */\n      tag_139\n      jump\t// in\n    tag_183:\n        /* \"#utility.yul\":2166:2305   */\n      swap3\n      swap2\n      pop\n      pop\n      jump\t// out\n        /* \"#utility.yul\":2311:2785   */\n    tag_43:\n        /* \"#utility.yul\":2379:2385   */\n      0x00\n        /* \"#utility.yul\":2387:2393   */\n      dup1\n        /* \"#utility.yul\":2436:2438   */\n      0x40\n        /* \"#utility.yul\":2424:2433   */\n      dup4\n        /* \"#utility.yul\":2415:2422   */\n      dup6\n        /* \"#utility.yul\":2411:2434   */\n      sub\n        /* \"#utility.yul\":2407:2439   */\n      slt\n        /* \"#utility.yul\":2404:2523   */\n      iszero\n      tag_185\n      jumpi\n        /* \"#utility.yul\":2442:2521   */\n      tag_186\n      tag_131\n      jump\t// in\n    tag_186:\n        /* \"#utility.yul\":2404:2523   */\n    tag_185:\n        /* \"#utility.yul\":2562:2563   */\n      0x00\n        /* \"#utility.yul\":2587:2640   */\n      tag_187\n        /* \"#utility.yul\":2632:2639   */\n      dup6\n        /* \"#utility.yul\":2623:2629   */\n      dup3\n        /* \"#utility.yul\":2612:2621   */\n      dup7\n        /* \"#utility.yul\":2608:2630   */\n      add\n        /* \"#utility.yul\":2587:2640   */\n      tag_140\n      jump\t// in\n    tag_187:\n        /* \"#utility.yul\":2577:2640   */\n      swap3\n      pop\n        /* \"#utility.yul\":2533:2650   */\n      pop\n        /* \"#utility.yul\":2689:2691   */\n      0x20\n        /* \"#utility.yul\":2715:2768   */\n      tag_188\n        /* \"#utility.yul\":2760:2767   */\n      dup6\n        /* \"#utility.yul\":2751:2757   */\n      dup3\n        /* \"#utility.yul\":2740:2749   */\n      dup7\n        /* \"#utility.yul\":2736:2758   */\n      add\n        /* \"#utility.yul\":2715:2768   */\n      tag_136\n      jump\t// in\n    tag_188:\n        /* \"#utility.yul\":2705:2768   */\n      swap2\n      pop\n        /* \"#utility.yul\":2660:2778   */\n      pop\n        /* \"#utility.yul\":2311:2785   */\n      swap3\n      pop\n      swap3\n      swap1\n      pop\n      jump\t// out\n        /* \"#utility.yul\":2791:2909   */\n    tag_141:\n        /* \"#utility.yul\":2878:2902   */\n      tag_190\n        /* \"#utility.yul\":2896:2901   */\n      dup2\n        /* \"#utility.yul\":2878:2902   */\n      tag_134\n      jump\t// in\n    tag_190:\n        /* \"#utility.yul\":2873:2876   */\n      dup3\n        /* \"#utility.yul\":2866:2903   */\n      mstore\n        /* \"#utility.yul\":2791:2909   */\n      pop\n      pop\n      jump\t// out\n        /* \"#utility.yul\":2915:3137   */\n    tag_54:\n        /* \"#utility.yul\":3008:3012   */\n      0x00\n        /* \"#utility.yul\":3046:3048   */\n      0x20\n        /* \"#utility.yul\":3035:3044   */\n      dup3\n        /* \"#utility.yul\":3031:3049   */\n      add\n        /* \"#utility.yul\":3023:3049   */\n      swap1\n      pop\n        /* \"#utility.yul\":3059:3130   */\n      tag_192\n        /* \"#utility.yul\":3127:3128   */\n      0x00\n        /* \"#utility.yul\":3116:3125   */\n      dup4\n        /* \"#utility.yul\":3112:3129   */\n      add\n        /* \"#utility.yul\":3103:3109   */\n      dup5\n        /* \"#utility.yul\":3059:3130   */\n      tag_141\n      jump\t// in\n    tag_192:\n        /* \"#utility.yul\":2915:3137   */\n      swap3\n      swap2\n      pop\n      pop\n      jump\t// out\n        /* \"#utility.yul\":3143:3472   */\n    tag_69:\n        /* \"#utility.yul\":3202:3208   */\n      0x00\n        /* \"#utility.yul\":3251:3253   */\n      0x20\n        /* \"#utility.yul\":3239:3248   */\n      dup3\n        /* \"#utility.yul\":3230:3237   */\n      dup5\n        /* \"#utility.yul\":3226:3249   */\n      sub\n        /* \"#utility.yul\":3222:3254   */\n      slt\n        /* \"#utility.yul\":3219:3338   */\n      iszero\n      tag_194\n      jumpi\n        /* \"#utility.yul\":3257:3336   */\n      tag_195\n      tag_131\n      jump\t// in\n    tag_195:\n        /* \"#utility.yul\":3219:3338   */\n    tag_194:\n        /* \"#utility.yul\":3377:3378   */\n      0x00\n        /* \"#utility.yul\":3402:3455   */\n      tag_196\n        /* \"#utility.yul\":3447:3454   */\n      dup5\n        /* \"#utility.yul\":3438:3444   */\n      dup3\n        /* \"#utility.yul\":3427:3436   */\n      dup6\n        /* \"#utility.yul\":3423:3445   */\n      add\n        /* \"#utility.yul\":3402:3455   */\n      tag_140\n      jump\t// in\n    tag_196:\n        /* \"#utility.yul\":3392:3455   */\n      swap2\n      pop\n        /* \"#utility.yul\":3348:3465   */\n      pop\n        /* \"#utility.yul\":3143:3472   */\n      swap3\n      swap2\n      pop\n      pop\n      jump\t// out\n        /* \"#utility.yul\":3478:3647   */\n    tag_142:\n        /* \"#utility.yul\":3562:3573   */\n      0x00\n        /* \"#utility.yul\":3596:3602   */\n      dup3\n        /* \"#utility.yul\":3591:3594   */\n      dup3\n        /* \"#utility.yul\":3584:3603   */\n      mstore\n        /* \"#utility.yul\":3636:3640   */\n      0x20\n        /* \"#utility.yul\":3631:3634   */\n      dup3\n        /* \"#utility.yul\":3627:3641   */\n      add\n        /* \"#utility.yul\":3612:3641   */\n      swap1\n      pop\n        /* \"#utility.yul\":3478:3647   */\n      swap3\n      swap2\n      pop\n      pop\n      jump\t// out\n        /* \"#utility.yul\":3653:3883   */\n    tag_143:\n        /* \"#utility.yul\":3793:3827   */\n      0x596f7520617265206e6f7420617574686f72697a656420746f20757365207468\n        /* \"#utility.yul\":3789:3790   */\n      0x00\n        /* \"#utility.yul\":3781:3787   */\n      dup3\n        /* \"#utility.yul\":3777:3791   */\n      add\n        /* \"#utility.yul\":3770:3828   */\n      mstore\n        /* \"#utility.yul\":3862:3875   */\n      0x69732066756e6374696f6e000000000000000000000000000000000000000000\n        /* \"#utility.yul\":3857:3859   */\n      0x20\n        /* \"#utility.yul\":3849:3855   */\n      dup3\n        /* \"#utility.yul\":3845:3860   */\n      add\n        /* \"#utility.yul\":3838:3876   */\n      mstore\n        /* \"#utility.yul\":3653:3883   */\n      pop\n      jump\t// out\n        /* \"#utility.yul\":3889:4255   */\n    tag_144:\n        /* \"#utility.yul\":4031:4034   */\n      0x00\n        /* \"#utility.yul\":4052:4119   */\n      tag_200\n        /* \"#utility.yul\":4116:4118   */\n      0x2b\n        /* \"#utility.yul\":4111:4114   */\n      dup4\n        /* \"#utility.yul\":4052:4119   */\n      tag_142\n      jump\t// in\n    tag_200:\n        /* \"#utility.yul\":4045:4119   */\n      swap2\n      pop\n        /* \"#utility.yul\":4128:4221   */\n      tag_201\n        /* \"#utility.yul\":4217:4220   */\n      dup3\n        /* \"#utility.yul\":4128:4221   */\n      tag_143\n      jump\t// in\n    tag_201:\n        /* \"#utility.yul\":4246:4248   */\n      0x40\n        /* \"#utility.yul\":4241:4244   */\n      dup3\n        /* \"#utility.yul\":4237:4249   */\n      add\n        /* \"#utility.yul\":4230:4249   */\n      swap1\n      pop\n        /* \"#utility.yul\":3889:4255   */\n      swap2\n      swap1\n      pop\n      jump\t// out\n        /* \"#utility.yul\":4261:4680   */\n    tag_89:\n        /* \"#utility.yul\":4427:4431   */\n      0x00\n        /* \"#utility.yul\":4465:4467   */\n      0x20\n        /* \"#utility.yul\":4454:4463   */\n      dup3\n        /* \"#utility.yul\":4450:4468   */\n      add\n        /* \"#utility.yul\":4442:4468   */\n      swap1\n      pop\n        /* \"#utility.yul\":4514:4523   */\n      dup2\n        /* \"#utility.yul\":4508:4512   */\n      dup2\n        /* \"#utility.yul\":4504:4524   */\n      sub\n        /* \"#utility.yul\":4500:4501   */\n      0x00\n        /* \"#utility.yul\":4489:4498   */\n      dup4\n        /* \"#utility.yul\":4485:4502   */\n      add\n        /* \"#utility.yul\":4478:4525   */\n      mstore\n        /* \"#utility.yul\":4542:4673   */\n      tag_203\n        /* \"#utility.yul\":4668:4672   */\n      dup2\n        /* \"#utility.yul\":4542:4673   */\n      tag_144\n      jump\t// in\n    tag_203:\n        /* \"#utility.yul\":4534:4673   */\n      swap1\n      pop\n        /* \"#utility.yul\":4261:4680   */\n      swap2\n      swap1\n      pop\n      jump\t// out\n        /* \"#utility.yul\":4686:4833   */\n    tag_145:\n        /* \"#utility.yul\":4787:4798   */\n      0x00\n        /* \"#utility.yul\":4824:4827   */\n      dup2\n        /* \"#utility.yul\":4809:4827   */\n      swap1\n      pop\n        /* \"#utility.yul\":4686:4833   */\n      swap3\n      swap2\n      pop\n      pop\n      jump\t// out\n        /* \"#utility.yul\":4839:4953   */\n    tag_146:\n      pop\n      jump\t// out\n        /* \"#utility.yul\":4959:5357   */\n    tag_147:\n        /* \"#utility.yul\":5118:5121   */\n      0x00\n        /* \"#utility.yul\":5139:5222   */\n      tag_207\n        /* \"#utility.yul\":5220:5221   */\n      0x00\n        /* \"#utility.yul\":5215:5218   */\n      dup4\n        /* \"#utility.yul\":5139:5222   */\n      tag_145\n      jump\t// in\n    tag_207:\n        /* \"#utility.yul\":5132:5222   */\n      swap2\n      pop\n        /* \"#utility.yul\":5231:5324   */\n      tag_208\n        /* \"#utility.yul\":5320:5323   */\n      dup3\n        /* \"#utility.yul\":5231:5324   */\n      tag_146\n      jump\t// in\n    tag_208:\n        /* \"#utility.yul\":5349:5350   */\n      0x00\n        /* \"#utility.yul\":5344:5347   */\n      dup3\n        /* \"#utility.yul\":5340:5351   */\n      add\n        /* \"#utility.yul\":5333:5351   */\n      swap1\n      pop\n        /* \"#utility.yul\":4959:5357   */\n      swap2\n      swap1\n      pop\n      jump\t// out\n        /* \"#utility.yul\":5363:5742   */\n    tag_92:\n        /* \"#utility.yul\":5547:5550   */\n      0x00\n        /* \"#utility.yul\":5569:5716   */\n      tag_210\n        /* \"#utility.yul\":5712:5715   */\n      dup3\n        /* \"#utility.yul\":5569:5716   */\n      tag_147\n      jump\t// in\n    tag_210:\n        /* \"#utility.yul\":5562:5716   */\n      swap2\n      pop\n        /* \"#utility.yul\":5733:5736   */\n      dup2\n        /* \"#utility.yul\":5726:5736   */\n      swap1\n      pop\n        /* \"#utility.yul\":5363:5742   */\n      swap2\n      swap1\n      pop\n      jump\t// out\n        /* \"#utility.yul\":5748:5916   */\n    tag_148:\n        /* \"#utility.yul\":5888:5908   */\n      0x5472616e73616374696f6e206661696c65640000000000000000000000000000\n        /* \"#utility.yul\":5884:5885   */\n      0x00\n        /* \"#utility.yul\":5876:5882   */\n      dup3\n        /* \"#utility.yul\":5872:5886   */\n      add\n        /* \"#utility.yul\":5865:5909   */\n      mstore\n        /* \"#utility.yul\":5748:5916   */\n      pop\n      jump\t// out\n        /* \"#utility.yul\":5922:6288   */\n    tag_149:\n        /* \"#utility.yul\":6064:6067   */\n      0x00\n        /* \"#utility.yul\":6085:6152   */\n      tag_213\n        /* \"#utility.yul\":6149:6151   */\n      0x12\n        /* \"#utility.yul\":6144:6147   */\n      dup4\n        /* \"#utility.yul\":6085:6152   */\n      tag_142\n      jump\t// in\n    tag_213:\n        /* \"#utility.yul\":6078:6152   */\n      swap2\n      pop\n        /* \"#utility.yul\":6161:6254   */\n      tag_214\n        /* \"#utility.yul\":6250:6253   */\n      dup3\n        /* \"#utility.yul\":6161:6254   */\n      tag_148\n      jump\t// in\n    tag_214:\n        /* \"#utility.yul\":6279:6281   */\n      0x20\n        /* \"#utility.yul\":6274:6277   */\n      dup3\n        /* \"#utility.yul\":6270:6282   */\n      add\n        /* \"#utility.yul\":6263:6282   */\n      swap1\n      pop\n        /* \"#utility.yul\":5922:6288   */\n      swap2\n      swap1\n      pop\n      jump\t// out\n        /* \"#utility.yul\":6294:6713   */\n    tag_98:\n        /* \"#utility.yul\":6460:6464   */\n      0x00\n        /* \"#utility.yul\":6498:6500   */\n      0x20\n        /* \"#utility.yul\":6487:6496   */\n      dup3\n        /* \"#utility.yul\":6483:6501   */\n      add\n        /* \"#utility.yul\":6475:6501   */\n      swap1\n      pop\n        /* \"#utility.yul\":6547:6556   */\n      dup2\n        /* \"#utility.yul\":6541:6545   */\n      dup2\n        /* \"#utility.yul\":6537:6557   */\n      sub\n        /* \"#utility.yul\":6533:6534   */\n      0x00\n        /* \"#utility.yul\":6522:6531   */\n      dup4\n        /* \"#utility.yul\":6518:6535   */\n      add\n        /* \"#utility.yul\":6511:6558   */\n      mstore\n        /* \"#utility.yul\":6575:6706   */\n      tag_216\n        /* \"#utility.yul\":6701:6705   */\n      dup2\n        /* \"#utility.yul\":6575:6706   */\n      tag_149\n      jump\t// in\n    tag_216:\n        /* \"#utility.yul\":6567:6706   */\n      swap1\n      pop\n        /* \"#utility.yul\":6294:6713   */\n      swap2\n      swap1\n      pop\n      jump\t// out\n        /* \"#utility.yul\":6719:6886   */\n    tag_150:\n        /* \"#utility.yul\":6859:6878   */\n      0x416d6f756e74206e6f7420656e6f756768000000000000000000000000000000\n        /* \"#utility.yul\":6855:6856   */\n      0x00\n        /* \"#utility.yul\":6847:6853   */\n      dup3\n        /* \"#utility.yul\":6843:6857   */\n      add\n        /* \"#utility.yul\":6836:6879   */\n      mstore\n        /* \"#utility.yul\":6719:6886   */\n      pop\n      jump\t// out\n        /* \"#utility.yul\":6892:7258   */\n    tag_151:\n        /* \"#utility.yul\":7034:7037   */\n      0x00\n        /* \"#utility.yul\":7055:7122   */\n      tag_219\n        /* \"#utility.yul\":7119:7121   */\n      0x11\n        /* \"#utility.yul\":7114:7117   */\n      dup4\n        /* \"#utility.yul\":7055:7122   */\n      tag_142\n      jump\t// in\n    tag_219:\n        /* \"#utility.yul\":7048:7122   */\n      swap2\n      pop\n        /* \"#utility.yul\":7131:7224   */\n      tag_220\n        /* \"#utility.yul\":7220:7223   */\n      dup3\n        /* \"#utility.yul\":7131:7224   */\n      tag_150\n      jump\t// in\n    tag_220:\n        /* \"#utility.yul\":7249:7251   */\n      0x20\n        /* \"#utility.yul\":7244:7247   */\n      dup3\n        /* \"#utility.yul\":7240:7252   */\n      add\n        /* \"#utility.yul\":7233:7252   */\n      swap1\n      pop\n        /* \"#utility.yul\":6892:7258   */\n      swap2\n      swap1\n      pop\n      jump\t// out\n        /* \"#utility.yul\":7264:7683   */\n    tag_107:\n        /* \"#utility.yul\":7430:7434   */\n      0x00\n        /* \"#utility.yul\":7468:7470   */\n      0x20\n        /* \"#utility.yul\":7457:7466   */\n      dup3\n        /* \"#utility.yul\":7453:7471   */\n      add\n        /* \"#utility.yul\":7445:7471   */\n      swap1\n      pop\n        /* \"#utility.yul\":7517:7526   */\n      dup2\n        /* \"#utility.yul\":7511:7515   */\n      dup2\n        /* \"#utility.yul\":7507:7527   */\n      sub\n        /* \"#utility.yul\":7503:7504   */\n      0x00\n        /* \"#utility.yul\":7492:7501   */\n      dup4\n        /* \"#utility.yul\":7488:7505   */\n      add\n        /* \"#utility.yul\":7481:7528   */\n      mstore\n        /* \"#utility.yul\":7545:7676   */\n      tag_222\n        /* \"#utility.yul\":7671:7675   */\n      dup2\n        /* \"#utility.yul\":7545:7676   */\n      tag_151\n      jump\t// in\n    tag_222:\n        /* \"#utility.yul\":7537:7676   */\n      swap1\n      pop\n        /* \"#utility.yul\":7264:7683   */\n      swap2\n      swap1\n      pop\n      jump\t// out\n        /* \"#utility.yul\":7689:7869   */\n    tag_152:\n        /* \"#utility.yul\":7737:7814   */\n      0x4e487b7100000000000000000000000000000000000000000000000000000000\n        /* \"#utility.yul\":7734:7735   */\n      0x00\n        /* \"#utility.yul\":7727:7815   */\n      mstore\n        /* \"#utility.yul\":7834:7838   */\n      0x11\n        /* \"#utility.yul\":7831:7832   */\n      0x04\n        /* \"#utility.yul\":7824:7839   */\n      mstore\n        /* \"#utility.yul\":7858:7862   */\n      0x24\n        /* \"#utility.yul\":7855:7856   */\n      0x00\n        /* \"#utility.yul\":7848:7863   */\n      revert\n        /* \"#utility.yul\":7875:8066   */\n    tag_109:\n        /* \"#utility.yul\":7915:7918   */\n      0x00\n        /* \"#utility.yul\":7934:7954   */\n      tag_225\n        /* \"#utility.yul\":7952:7953   */\n      dup3\n        /* \"#utility.yul\":7934:7954   */\n      tag_128\n      jump\t// in\n    tag_225:\n        /* \"#utility.yul\":7929:7954   */\n      swap2\n      pop\n        /* \"#utility.yul\":7968:7988   */\n      tag_226\n        /* \"#utility.yul\":7986:7987   */\n      dup4\n        /* \"#utility.yul\":7968:7988   */\n      tag_128\n      jump\t// in\n    tag_226:\n        /* \"#utility.yul\":7963:7988   */\n      swap3\n      pop\n        /* \"#utility.yul\":8011:8012   */\n      dup3\n        /* \"#utility.yul\":8008:8009   */\n      dup3\n        /* \"#utility.yul\":8004:8013   */\n      add\n        /* \"#utility.yul\":7997:8013   */\n      swap1\n      pop\n        /* \"#utility.yul\":8032:8035   */\n      dup1\n        /* \"#utility.yul\":8029:8030   */\n      dup3\n        /* \"#utility.yul\":8026:8036   */\n      gt\n        /* \"#utility.yul\":8023:8059   */\n      iszero\n      tag_227\n      jumpi\n        /* \"#utility.yul\":8039:8057   */\n      tag_228\n      tag_152\n      jump\t// in\n    tag_228:\n        /* \"#utility.yul\":8023:8059   */\n    tag_227:\n        /* \"#utility.yul\":7875:8066   */\n      swap3\n      swap2\n      pop\n      pop\n      jump\t// out\n\n    auxdata: 0xa26469706673582212201744f07a715d3259fcd9aa029b6883cdb4f831bc080e8b5c01afce3b9663aa3364736f6c63430008180033\n}\n",
				"bytecode": {
					"linkReferences": {},
					"object": "608060405234801562000010575f80fd5b5060405162000ef838038062000ef88339818101604052810190620000369190620001e9565b805f73ffffffffffffffffffffffffffffffffffffffff168173ffffffffffffffffffffffffffffffffffffffff1603620000aa575f6040517f1e4fbdf7000000000000000000000000000000000000000000000000000000008152600401620000a191906200022a565b60405180910390fd5b620000bb81620000c360201b60201c565b505062000245565b5f805f9054906101000a900473ffffffffffffffffffffffffffffffffffffffff169050815f806101000a81548173ffffffffffffffffffffffffffffffffffffffff021916908373ffffffffffffffffffffffffffffffffffffffff1602179055508173ffffffffffffffffffffffffffffffffffffffff168173ffffffffffffffffffffffffffffffffffffffff167f8be0079c531659141344cd1fd0a4f28419497f9722a3daafe3b4186f6b6457e060405160405180910390a35050565b5f80fd5b5f73ffffffffffffffffffffffffffffffffffffffff82169050919050565b5f620001b38262000188565b9050919050565b620001c581620001a7565b8114620001d0575f80fd5b50565b5f81519050620001e381620001ba565b92915050565b5f6020828403121562000201576200020062000184565b5b5f6200021084828501620001d3565b91505092915050565b6200022481620001a7565b82525050565b5f6020820190506200023f5f83018462000219565b92915050565b610ca580620002535f395ff3fe6080604052600436106100c1575f3560e01c80638c7d6f901161007e5780639f64bd48116100585780639f64bd4814610249578063b60d428814610285578063dc0d3dff1461028f578063f2fde38b146102cb576100c1565b80638c7d6f90146101bb5780638da5cb5b146101f757806394f3f81d14610221576100c1565b80630ef67887146100c557806335b28153146100ef5780636d81a01b146101175780636daaaaef14610153578063715018a61461017d578063785d04f514610193575b5f80fd5b3480156100d0575f80fd5b506100d96102f3565b6040516100e691906108d0565b60405180910390f35b3480156100fa575f80fd5b5061011560048036038101906101109190610947565b6102f9565b005b348015610122575f80fd5b5061013d60048036038101906101389190610947565b610359565b60405161014a919061098c565b60405180910390f35b34801561015e575f80fd5b50610167610376565b60405161017491906108d0565b60405180910390f35b348015610188575f80fd5b5061019161037d565b005b34801561019e575f80fd5b506101b960048036038101906101b491906109cf565b610390565b005b3480156101c6575f80fd5b506101e160048036038101906101dc9190610947565b6104c6565b6040516101ee91906108d0565b60405180910390f35b348015610202575f80fd5b5061020b6104db565b6040516102189190610a1c565b60405180910390f35b34801561022c575f80fd5b5061024760048036038101906102429190610947565b610502565b005b348015610254575f80fd5b5061026f600480360381019061026a9190610947565b610561565b60405161027c919061098c565b60405180910390f35b61028d6105b3565b005b34801561029a575f80fd5b506102b560048036038101906102b09190610a35565b6106aa565b6040516102c29190610a1c565b60405180910390f35b3480156102d6575f80fd5b506102f160048036038101906102ec9190610947565b6106e5565b005b60015481565b610301610769565b600160035f8373ffffffffffffffffffffffffffffffffffffffff1673ffffffffffffffffffffffffffffffffffffffff1681526020019081526020015f205f6101000a81548160ff02191690831515021790555050565b6003602052805f5260405f205f915054906101000a900460ff1681565b5f47905090565b610385610769565b61038e5f6107f0565b565b60035f3373ffffffffffffffffffffffffffffffffffffffff1673ffffffffffffffffffffffffffffffffffffffff1681526020019081526020015f205f9054906101000a900460ff16610419576040517f08c379a000000000000000000000000000000000000000000000000000000000815260040161041090610ae0565b60405180910390fd5b5f8173ffffffffffffffffffffffffffffffffffffffff168360405161043e90610b2b565b5f6040518083038185875af1925050503d805f8114610478576040519150601f19603f3d011682016040523d82523d5f602084013e61047d565b606091505b50509050806104c1576040517f08c379a00000000000000000000000000000000000000000000000000000000081526004016104b890610b89565b60405180910390fd5b505050565b6004602052805f5260405f205f915090505481565b5f805f9054906101000a900473ffffffffffffffffffffffffffffffffffffffff16905090565b61050a610769565b5f60035f8373ffffffffffffffffffffffffffffffffffffffff1673ffffffffffffffffffffffffffffffffffffffff1681526020019081526020015f205f6101000a81548160ff02191690831515021790555050565b5f60035f8373ffffffffffffffffffffffffffffffffffffffff1673ffffffffffffffffffffffffffffffffffffffff1681526020019081526020015f205f9054906101000a900460ff169050919050565b5f34116105f5576040517f08c379a00000000000000000000000000000000000000000000000000000000081526004016105ec90610bf1565b60405180910390fd5b3460045f3373ffffffffffffffffffffffffffffffffffffffff1673ffffffffffffffffffffffffffffffffffffffff1681526020019081526020015f205f8282546106419190610c3c565b92505081905550600233908060018154018082558091505060019003905f5260205f20015f9091909190916101000a81548173ffffffffffffffffffffffffffffffffffffffff021916908373ffffffffffffffffffffffffffffffffffffffff160217905550565b600281815481106106b9575f80fd5b905f5260205f20015f915054906101000a900473ffffffffffffffffffffffffffffffffffffffff1681565b6106ed610769565b5f73ffffffffffffffffffffffffffffffffffffffff168173ffffffffffffffffffffffffffffffffffffffff160361075d575f6040517f1e4fbdf70000000000000000000000000000000000000000000000000000000081526004016107549190610a1c565b60405180910390fd5b610766816107f0565b50565b6107716108b1565b73ffffffffffffffffffffffffffffffffffffffff1661078f6104db565b73ffffffffffffffffffffffffffffffffffffffff16146107ee576107b26108b1565b6040517f118cdaa70000000000000000000000000000000000000000000000000000000081526004016107e59190610a1c565b60405180910390fd5b565b5f805f9054906101000a900473ffffffffffffffffffffffffffffffffffffffff169050815f806101000a81548173ffffffffffffffffffffffffffffffffffffffff021916908373ffffffffffffffffffffffffffffffffffffffff1602179055508173ffffffffffffffffffffffffffffffffffffffff168173ffffffffffffffffffffffffffffffffffffffff167f8be0079c531659141344cd1fd0a4f28419497f9722a3daafe3b4186f6b6457e060405160405180910390a35050565b5f33905090565b5f819050919050565b6108ca816108b8565b82525050565b5f6020820190506108e35f8301846108c1565b92915050565b5f80fd5b5f73ffffffffffffffffffffffffffffffffffffffff82169050919050565b5f610916826108ed565b9050919050565b6109268161090c565b8114610930575f80fd5b50565b5f813590506109418161091d565b92915050565b5f6020828403121561095c5761095b6108e9565b5b5f61096984828501610933565b91505092915050565b5f8115159050919050565b61098681610972565b82525050565b5f60208201905061099f5f83018461097d565b92915050565b6109ae816108b8565b81146109b8575f80fd5b50565b5f813590506109c9816109a5565b92915050565b5f80604083850312156109e5576109e46108e9565b5b5f6109f2858286016109bb565b9250506020610a0385828601610933565b9150509250929050565b610a168161090c565b82525050565b5f602082019050610a2f5f830184610a0d565b92915050565b5f60208284031215610a4a57610a496108e9565b5b5f610a57848285016109bb565b91505092915050565b5f82825260208201905092915050565b7f596f7520617265206e6f7420617574686f72697a656420746f207573652074685f8201527f69732066756e6374696f6e000000000000000000000000000000000000000000602082015250565b5f610aca602b83610a60565b9150610ad582610a70565b604082019050919050565b5f6020820190508181035f830152610af781610abe565b9050919050565b5f81905092915050565b50565b5f610b165f83610afe565b9150610b2182610b08565b5f82019050919050565b5f610b3582610b0b565b9150819050919050565b7f5472616e73616374696f6e206661696c656400000000000000000000000000005f82015250565b5f610b73601283610a60565b9150610b7e82610b3f565b602082019050919050565b5f6020820190508181035f830152610ba081610b67565b9050919050565b7f416d6f756e74206e6f7420656e6f7567680000000000000000000000000000005f82015250565b5f610bdb601183610a60565b9150610be682610ba7565b602082019050919050565b5f6020820190508181035f830152610c0881610bcf565b9050919050565b7f4e487b71000000000000000000000000000000000000000000000000000000005f52601160045260245ffd5b5f610c46826108b8565b9150610c51836108b8565b9250828201905080821115610c6957610c68610c0f565b5b9291505056fea26469706673582212201744f07a715d3259fcd9aa029b6883cdb4f831bc080e8b5c01afce3b9663aa3364736f6c63430008180033",
					"opcodes": "PUSH1 0x80 PUSH1 0x40 MSTORE CALLVALUE DUP1 ISZERO PUSH3 0x10 JUMPI PUSH0 DUP1 REVERT JUMPDEST POP PUSH1 0x40 MLOAD PUSH3 0xEF8 CODESIZE SUB DUP1 PUSH3 0xEF8 DUP4 CODECOPY DUP2 DUP2 ADD PUSH1 0x40 MSTORE DUP2 ADD SWAP1 PUSH3 0x36 SWAP2 SWAP1 PUSH3 0x1E9 JUMP JUMPDEST DUP1 PUSH0 PUSH20 0xFFFFFFFFFFFFFFFFFFFFFFFFFFFFFFFFFFFFFFFF AND DUP2 PUSH20 0xFFFFFFFFFFFFFFFFFFFFFFFFFFFFFFFFFFFFFFFF AND SUB PUSH3 0xAA JUMPI PUSH0 PUSH1 0x40 MLOAD PUSH32 0x1E4FBDF700000000000000000000000000000000000000000000000000000000 DUP2 MSTORE PUSH1 0x4 ADD PUSH3 0xA1 SWAP2 SWAP1 PUSH3 0x22A JUMP JUMPDEST PUSH1 0x40 MLOAD DUP1 SWAP2 SUB SWAP1 REVERT JUMPDEST PUSH3 0xBB DUP2 PUSH3 0xC3 PUSH1 0x20 SHL PUSH1 0x20 SHR JUMP JUMPDEST POP POP PUSH3 0x245 JUMP JUMPDEST PUSH0 DUP1 PUSH0 SWAP1 SLOAD SWAP1 PUSH2 0x100 EXP SWAP1 DIV PUSH20 0xFFFFFFFFFFFFFFFFFFFFFFFFFFFFFFFFFFFFFFFF AND SWAP1 POP DUP2 PUSH0 DUP1 PUSH2 0x100 EXP DUP2 SLOAD DUP2 PUSH20 0xFFFFFFFFFFFFFFFFFFFFFFFFFFFFFFFFFFFFFFFF MUL NOT AND SWAP1 DUP4 PUSH20 0xFFFFFFFFFFFFFFFFFFFFFFFFFFFFFFFFFFFFFFFF AND MUL OR SWAP1 SSTORE POP DUP2 PUSH20 0xFFFFFFFFFFFFFFFFFFFFFFFFFFFFFFFFFFFFFFFF AND DUP2 PUSH20 0xFFFFFFFFFFFFFFFFFFFFFFFFFFFFFFFFFFFFFFFF AND PUSH32 0x8BE0079C531659141344CD1FD0A4F28419497F9722A3DAAFE3B4186F6B6457E0 PUSH1 0x40 MLOAD PUSH1 0x40 MLOAD DUP1 SWAP2 SUB SWAP1 LOG3 POP POP JUMP JUMPDEST PUSH0 DUP1 REVERT JUMPDEST PUSH0 PUSH20 0xFFFFFFFFFFFFFFFFFFFFFFFFFFFFFFFFFFFFFFFF DUP3 AND SWAP1 POP SWAP2 SWAP1 POP JUMP JUMPDEST PUSH0 PUSH3 0x1B3 DUP3 PUSH3 0x188 JUMP JUMPDEST SWAP1 POP SWAP2 SWAP1 POP JUMP JUMPDEST PUSH3 0x1C5 DUP2 PUSH3 0x1A7 JUMP JUMPDEST DUP2 EQ PUSH3 0x1D0 JUMPI PUSH0 DUP1 REVERT JUMPDEST POP JUMP JUMPDEST PUSH0 DUP2 MLOAD SWAP1 POP PUSH3 0x1E3 DUP2 PUSH3 0x1BA JUMP JUMPDEST SWAP3 SWAP2 POP POP JUMP JUMPDEST PUSH0 PUSH1 0x20 DUP3 DUP5 SUB SLT ISZERO PUSH3 0x201 JUMPI PUSH3 0x200 PUSH3 0x184 JUMP JUMPDEST JUMPDEST PUSH0 PUSH3 0x210 DUP5 DUP3 DUP6 ADD PUSH3 0x1D3 JUMP JUMPDEST SWAP2 POP POP SWAP3 SWAP2 POP POP JUMP JUMPDEST PUSH3 0x224 DUP2 PUSH3 0x1A7 JUMP JUMPDEST DUP3 MSTORE POP POP JUMP JUMPDEST PUSH0 PUSH1 0x20 DUP3 ADD SWAP1 POP PUSH3 0x23F PUSH0 DUP4 ADD DUP5 PUSH3 0x219 JUMP JUMPDEST SWAP3 SWAP2 POP POP JUMP JUMPDEST PUSH2 0xCA5 DUP1 PUSH3 0x253 PUSH0 CODECOPY PUSH0 RETURN INVALID PUSH1 0x80 PUSH1 0x40 MSTORE PUSH1 0x4 CALLDATASIZE LT PUSH2 0xC1 JUMPI PUSH0 CALLDATALOAD PUSH1 0xE0 SHR DUP1 PUSH4 0x8C7D6F90 GT PUSH2 0x7E JUMPI DUP1 PUSH4 0x9F64BD48 GT PUSH2 0x58 JUMPI DUP1 PUSH4 0x9F64BD48 EQ PUSH2 0x249 JUMPI DUP1 PUSH4 0xB60D4288 EQ PUSH2 0x285 JUMPI DUP1 PUSH4 0xDC0D3DFF EQ PUSH2 0x28F JUMPI DUP1 PUSH4 0xF2FDE38B EQ PUSH2 0x2CB JUMPI PUSH2 0xC1 JUMP JUMPDEST DUP1 PUSH4 0x8C7D6F90 EQ PUSH2 0x1BB JUMPI DUP1 PUSH4 0x8DA5CB5B EQ PUSH2 0x1F7 JUMPI DUP1 PUSH4 0x94F3F81D EQ PUSH2 0x221 JUMPI PUSH2 0xC1 JUMP JUMPDEST DUP1 PUSH4 0xEF67887 EQ PUSH2 0xC5 JUMPI DUP1 PUSH4 0x35B28153 EQ PUSH2 0xEF JUMPI DUP1 PUSH4 0x6D81A01B EQ PUSH2 0x117 JUMPI DUP1 PUSH4 0x6DAAAAEF EQ PUSH2 0x153 JUMPI DUP1 PUSH4 0x715018A6 EQ PUSH2 0x17D JUMPI DUP1 PUSH4 0x785D04F5 EQ PUSH2 0x193 JUMPI JUMPDEST PUSH0 DUP1 REVERT JUMPDEST CALLVALUE DUP1 ISZERO PUSH2 0xD0 JUMPI PUSH0 DUP1 REVERT JUMPDEST POP PUSH2 0xD9 PUSH2 0x2F3 JUMP JUMPDEST PUSH1 0x40 MLOAD PUSH2 0xE6 SWAP2 SWAP1 PUSH2 0x8D0 JUMP JUMPDEST PUSH1 0x40 MLOAD DUP1 SWAP2 SUB SWAP1 RETURN JUMPDEST CALLVALUE DUP1 ISZERO PUSH2 0xFA JUMPI PUSH0 DUP1 REVERT JUMPDEST POP PUSH2 0x115 PUSH1 0x4 DUP1 CALLDATASIZE SUB DUP2 ADD SWAP1 PUSH2 0x110 SWAP2 SWAP1 PUSH2 0x947 JUMP JUMPDEST PUSH2 0x2F9 JUMP JUMPDEST STOP JUMPDEST CALLVALUE DUP1 ISZERO PUSH2 0x122 JUMPI PUSH0 DUP1 REVERT JUMPDEST POP PUSH2 0x13D PUSH1 0x4 DUP1 CALLDATASIZE SUB DUP2 ADD SWAP1 PUSH2 0x138 SWAP2 SWAP1 PUSH2 0x947 JUMP JUMPDEST PUSH2 0x359 JUMP JUMPDEST PUSH1 0x40 MLOAD PUSH2 0x14A SWAP2 SWAP1 PUSH2 0x98C JUMP JUMPDEST PUSH1 0x40 MLOAD DUP1 SWAP2 SUB SWAP1 RETURN JUMPDEST CALLVALUE DUP1 ISZERO PUSH2 0x15E JUMPI PUSH0 DUP1 REVERT JUMPDEST POP PUSH2 0x167 PUSH2 0x376 JUMP JUMPDEST PUSH1 0x40 MLOAD PUSH2 0x174 SWAP2 SWAP1 PUSH2 0x8D0 JUMP JUMPDEST PUSH1 0x40 MLOAD DUP1 SWAP2 SUB SWAP1 RETURN JUMPDEST CALLVALUE DUP1 ISZERO PUSH2 0x188 JUMPI PUSH0 DUP1 REVERT JUMPDEST POP PUSH2 0x191 PUSH2 0x37D JUMP JUMPDEST STOP JUMPDEST CALLVALUE DUP1 ISZERO PUSH2 0x19E JUMPI PUSH0 DUP1 REVERT JUMPDEST POP PUSH2 0x1B9 PUSH1 0x4 DUP1 CALLDATASIZE SUB DUP2 ADD SWAP1 PUSH2 0x1B4 SWAP2 SWAP1 PUSH2 0x9CF JUMP JUMPDEST PUSH2 0x390 JUMP JUMPDEST STOP JUMPDEST CALLVALUE DUP1 ISZERO PUSH2 0x1C6 JUMPI PUSH0 DUP1 REVERT JUMPDEST POP PUSH2 0x1E1 PUSH1 0x4 DUP1 CALLDATASIZE SUB DUP2 ADD SWAP1 PUSH2 0x1DC SWAP2 SWAP1 PUSH2 0x947 JUMP JUMPDEST PUSH2 0x4C6 JUMP JUMPDEST PUSH1 0x40 MLOAD PUSH2 0x1EE SWAP2 SWAP1 PUSH2 0x8D0 JUMP JUMPDEST PUSH1 0x40 MLOAD DUP1 SWAP2 SUB SWAP1 RETURN JUMPDEST CALLVALUE DUP1 ISZERO PUSH2 0x202 JUMPI PUSH0 DUP1 REVERT JUMPDEST POP PUSH2 0x20B PUSH2 0x4DB JUMP JUMPDEST PUSH1 0x40 MLOAD PUSH2 0x218 SWAP2 SWAP1 PUSH2 0xA1C JUMP JUMPDEST PUSH1 0x40 MLOAD DUP1 SWAP2 SUB SWAP1 RETURN JUMPDEST CALLVALUE DUP1 ISZERO PUSH2 0x22C JUMPI PUSH0 DUP1 REVERT JUMPDEST POP PUSH2 0x247 PUSH1 0x4 DUP1 CALLDATASIZE SUB DUP2 ADD SWAP1 PUSH2 0x242 SWAP2 SWAP1 PUSH2 0x947 JUMP JUMPDEST PUSH2 0x502 JUMP JUMPDEST STOP JUMPDEST CALLVALUE DUP1 ISZERO PUSH2 0x254 JUMPI PUSH0 DUP1 REVERT JUMPDEST POP PUSH2 0x26F PUSH1 0x4 DUP1 CALLDATASIZE SUB DUP2 ADD SWAP1 PUSH2 0x26A SWAP2 SWAP1 PUSH2 0x947 JUMP JUMPDEST PUSH2 0x561 JUMP JUMPDEST PUSH1 0x40 MLOAD PUSH2 0x27C SWAP2 SWAP1 PUSH2 0x98C JUMP JUMPDEST PUSH1 0x40 MLOAD DUP1 SWAP2 SUB SWAP1 RETURN JUMPDEST PUSH2 0x28D PUSH2 0x5B3 JUMP JUMPDEST STOP JUMPDEST CALLVALUE DUP1 ISZERO PUSH2 0x29A JUMPI PUSH0 DUP1 REVERT JUMPDEST POP PUSH2 0x2B5 PUSH1 0x4 DUP1 CALLDATASIZE SUB DUP2 ADD SWAP1 PUSH2 0x2B0 SWAP2 SWAP1 PUSH2 0xA35 JUMP JUMPDEST PUSH2 0x6AA JUMP JUMPDEST PUSH1 0x40 MLOAD PUSH2 0x2C2 SWAP2 SWAP1 PUSH2 0xA1C JUMP JUMPDEST PUSH1 0x40 MLOAD DUP1 SWAP2 SUB SWAP1 RETURN JUMPDEST CALLVALUE DUP1 ISZERO PUSH2 0x2D6 JUMPI PUSH0 DUP1 REVERT JUMPDEST POP PUSH2 0x2F1 PUSH1 0x4 DUP1 CALLDATASIZE SUB DUP2 ADD SWAP1 PUSH2 0x2EC SWAP2 SWAP1 PUSH2 0x947 JUMP JUMPDEST PUSH2 0x6E5 JUMP JUMPDEST STOP JUMPDEST PUSH1 0x1 SLOAD DUP2 JUMP JUMPDEST PUSH2 0x301 PUSH2 0x769 JUMP JUMPDEST PUSH1 0x1 PUSH1 0x3 PUSH0 DUP4 PUSH20 0xFFFFFFFFFFFFFFFFFFFFFFFFFFFFFFFFFFFFFFFF AND PUSH20 0xFFFFFFFFFFFFFFFFFFFFFFFFFFFFFFFFFFFFFFFF AND DUP2 MSTORE PUSH1 0x20 ADD SWAP1 DUP2 MSTORE PUSH1 0x20 ADD PUSH0 KECCAK256 PUSH0 PUSH2 0x100 EXP DUP2 SLOAD DUP2 PUSH1 0xFF MUL NOT AND SWAP1 DUP4 ISZERO ISZERO MUL OR SWAP1 SSTORE POP POP JUMP JUMPDEST PUSH1 0x3 PUSH1 0x20 MSTORE DUP1 PUSH0 MSTORE PUSH1 0x40 PUSH0 KECCAK256 PUSH0 SWAP2 POP SLOAD SWAP1 PUSH2 0x100 EXP SWAP1 DIV PUSH1 0xFF AND DUP2 JUMP JUMPDEST PUSH0 SELFBALANCE SWAP1 POP SWAP1 JUMP JUMPDEST PUSH2 0x385 PUSH2 0x769 JUMP JUMPDEST PUSH2 0x38E PUSH0 PUSH2 0x7F0 JUMP JUMPDEST JUMP JUMPDEST PUSH1 0x3 PUSH0 CALLER PUSH20 0xFFFFFFFFFFFFFFFFFFFFFFFFFFFFFFFFFFFFFFFF AND PUSH20 0xFFFFFFFFFFFFFFFFFFFFFFFFFFFFFFFFFFFFFFFF AND DUP2 MSTORE PUSH1 0x20 ADD SWAP1 DUP2 MSTORE PUSH1 0x20 ADD PUSH0 KECCAK256 PUSH0 SWAP1 SLOAD SWAP1 PUSH2 0x100 EXP SWAP1 DIV PUSH1 0xFF AND PUSH2 0x419 JUMPI PUSH1 0x40 MLOAD PUSH32 0x8C379A000000000000000000000000000000000000000000000000000000000 DUP2 MSTORE PUSH1 0x4 ADD PUSH2 0x410 SWAP1 PUSH2 0xAE0 JUMP JUMPDEST PUSH1 0x40 MLOAD DUP1 SWAP2 SUB SWAP1 REVERT JUMPDEST PUSH0 DUP2 PUSH20 0xFFFFFFFFFFFFFFFFFFFFFFFFFFFFFFFFFFFFFFFF AND DUP4 PUSH1 0x40 MLOAD PUSH2 0x43E SWAP1 PUSH2 0xB2B JUMP JUMPDEST PUSH0 PUSH1 0x40 MLOAD DUP1 DUP4 SUB DUP2 DUP6 DUP8 GAS CALL SWAP3 POP POP POP RETURNDATASIZE DUP1 PUSH0 DUP2 EQ PUSH2 0x478 JUMPI PUSH1 0x40 MLOAD SWAP2 POP PUSH1 0x1F NOT PUSH1 0x3F RETURNDATASIZE ADD AND DUP3 ADD PUSH1 0x40 MSTORE RETURNDATASIZE DUP3 MSTORE RETURNDATASIZE PUSH0 PUSH1 0x20 DUP5 ADD RETURNDATACOPY PUSH2 0x47D JUMP JUMPDEST PUSH1 0x60 SWAP2 POP JUMPDEST POP POP SWAP1 POP DUP1 PUSH2 0x4C1 JUMPI PUSH1 0x40 MLOAD PUSH32 0x8C379A000000000000000000000000000000000000000000000000000000000 DUP2 MSTORE PUSH1 0x4 ADD PUSH2 0x4B8 SWAP1 PUSH2 0xB89 JUMP JUMPDEST PUSH1 0x40 MLOAD DUP1 SWAP2 SUB SWAP1 REVERT JUMPDEST POP POP POP JUMP JUMPDEST PUSH1 0x4 PUSH1 0x20 MSTORE DUP1 PUSH0 MSTORE PUSH1 0x40 PUSH0 KECCAK256 PUSH0 SWAP2 POP SWAP1 POP SLOAD DUP2 JUMP JUMPDEST PUSH0 DUP1 PUSH0 SWAP1 SLOAD SWAP1 PUSH2 0x100 EXP SWAP1 DIV PUSH20 0xFFFFFFFFFFFFFFFFFFFFFFFFFFFFFFFFFFFFFFFF AND SWAP1 POP SWAP1 JUMP JUMPDEST PUSH2 0x50A PUSH2 0x769 JUMP JUMPDEST PUSH0 PUSH1 0x3 PUSH0 DUP4 PUSH20 0xFFFFFFFFFFFFFFFFFFFFFFFFFFFFFFFFFFFFFFFF AND PUSH20 0xFFFFFFFFFFFFFFFFFFFFFFFFFFFFFFFFFFFFFFFF AND DUP2 MSTORE PUSH1 0x20 ADD SWAP1 DUP2 MSTORE PUSH1 0x20 ADD PUSH0 KECCAK256 PUSH0 PUSH2 0x100 EXP DUP2 SLOAD DUP2 PUSH1 0xFF MUL NOT AND SWAP1 DUP4 ISZERO ISZERO MUL OR SWAP1 SSTORE POP POP JUMP JUMPDEST PUSH0 PUSH1 0x3 PUSH0 DUP4 PUSH20 0xFFFFFFFFFFFFFFFFFFFFFFFFFFFFFFFFFFFFFFFF AND PUSH20 0xFFFFFFFFFFFFFFFFFFFFFFFFFFFFFFFFFFFFFFFF AND DUP2 MSTORE PUSH1 0x20 ADD SWAP1 DUP2 MSTORE PUSH1 0x20 ADD PUSH0 KECCAK256 PUSH0 SWAP1 SLOAD SWAP1 PUSH2 0x100 EXP SWAP1 DIV PUSH1 0xFF AND SWAP1 POP SWAP2 SWAP1 POP JUMP JUMPDEST PUSH0 CALLVALUE GT PUSH2 0x5F5 JUMPI PUSH1 0x40 MLOAD PUSH32 0x8C379A000000000000000000000000000000000000000000000000000000000 DUP2 MSTORE PUSH1 0x4 ADD PUSH2 0x5EC SWAP1 PUSH2 0xBF1 JUMP JUMPDEST PUSH1 0x40 MLOAD DUP1 SWAP2 SUB SWAP1 REVERT JUMPDEST CALLVALUE PUSH1 0x4 PUSH0 CALLER PUSH20 0xFFFFFFFFFFFFFFFFFFFFFFFFFFFFFFFFFFFFFFFF AND PUSH20 0xFFFFFFFFFFFFFFFFFFFFFFFFFFFFFFFFFFFFFFFF AND DUP2 MSTORE PUSH1 0x20 ADD SWAP1 DUP2 MSTORE PUSH1 0x20 ADD PUSH0 KECCAK256 PUSH0 DUP3 DUP3 SLOAD PUSH2 0x641 SWAP2 SWAP1 PUSH2 0xC3C JUMP JUMPDEST SWAP3 POP POP DUP2 SWAP1 SSTORE POP PUSH1 0x2 CALLER SWAP1 DUP1 PUSH1 0x1 DUP2 SLOAD ADD DUP1 DUP3 SSTORE DUP1 SWAP2 POP POP PUSH1 0x1 SWAP1 SUB SWAP1 PUSH0 MSTORE PUSH1 0x20 PUSH0 KECCAK256 ADD PUSH0 SWAP1 SWAP2 SWAP1 SWAP2 SWAP1 SWAP2 PUSH2 0x100 EXP DUP2 SLOAD DUP2 PUSH20 0xFFFFFFFFFFFFFFFFFFFFFFFFFFFFFFFFFFFFFFFF MUL NOT AND SWAP1 DUP4 PUSH20 0xFFFFFFFFFFFFFFFFFFFFFFFFFFFFFFFFFFFFFFFF AND MUL OR SWAP1 SSTORE POP JUMP JUMPDEST PUSH1 0x2 DUP2 DUP2 SLOAD DUP2 LT PUSH2 0x6B9 JUMPI PUSH0 DUP1 REVERT JUMPDEST SWAP1 PUSH0 MSTORE PUSH1 0x20 PUSH0 KECCAK256 ADD PUSH0 SWAP2 POP SLOAD SWAP1 PUSH2 0x100 EXP SWAP1 DIV PUSH20 0xFFFFFFFFFFFFFFFFFFFFFFFFFFFFFFFFFFFFFFFF AND DUP2 JUMP JUMPDEST PUSH2 0x6ED PUSH2 0x769 JUMP JUMPDEST PUSH0 PUSH20 0xFFFFFFFFFFFFFFFFFFFFFFFFFFFFFFFFFFFFFFFF AND DUP2 PUSH20 0xFFFFFFFFFFFFFFFFFFFFFFFFFFFFFFFFFFFFFFFF AND SUB PUSH2 0x75D JUMPI PUSH0 PUSH1 0x40 MLOAD PUSH32 0x1E4FBDF700000000000000000000000000000000000000000000000000000000 DUP2 MSTORE PUSH1 0x4 ADD PUSH2 0x754 SWAP2 SWAP1 PUSH2 0xA1C JUMP JUMPDEST PUSH1 0x40 MLOAD DUP1 SWAP2 SUB SWAP1 REVERT JUMPDEST PUSH2 0x766 DUP2 PUSH2 0x7F0 JUMP JUMPDEST POP JUMP JUMPDEST PUSH2 0x771 PUSH2 0x8B1 JUMP JUMPDEST PUSH20 0xFFFFFFFFFFFFFFFFFFFFFFFFFFFFFFFFFFFFFFFF AND PUSH2 0x78F PUSH2 0x4DB JUMP JUMPDEST PUSH20 0xFFFFFFFFFFFFFFFFFFFFFFFFFFFFFFFFFFFFFFFF AND EQ PUSH2 0x7EE JUMPI PUSH2 0x7B2 PUSH2 0x8B1 JUMP JUMPDEST PUSH1 0x40 MLOAD PUSH32 0x118CDAA700000000000000000000000000000000000000000000000000000000 DUP2 MSTORE PUSH1 0x4 ADD PUSH2 0x7E5 SWAP2 SWAP1 PUSH2 0xA1C JUMP JUMPDEST PUSH1 0x40 MLOAD DUP1 SWAP2 SUB SWAP1 REVERT JUMPDEST JUMP JUMPDEST PUSH0 DUP1 PUSH0 SWAP1 SLOAD SWAP1 PUSH2 0x100 EXP SWAP1 DIV PUSH20 0xFFFFFFFFFFFFFFFFFFFFFFFFFFFFFFFFFFFFFFFF AND SWAP1 POP DUP2 PUSH0 DUP1 PUSH2 0x100 EXP DUP2 SLOAD DUP2 PUSH20 0xFFFFFFFFFFFFFFFFFFFFFFFFFFFFFFFFFFFFFFFF MUL NOT AND SWAP1 DUP4 PUSH20 0xFFFFFFFFFFFFFFFFFFFFFFFFFFFFFFFFFFFFFFFF AND MUL OR SWAP1 SSTORE POP DUP2 PUSH20 0xFFFFFFFFFFFFFFFFFFFFFFFFFFFFFFFFFFFFFFFF AND DUP2 PUSH20 0xFFFFFFFFFFFFFFFFFFFFFFFFFFFFFFFFFFFFFFFF AND PUSH32 0x8BE0079C531659141344CD1FD0A4F28419497F9722A3DAAFE3B4186F6B6457E0 PUSH1 0x40 MLOAD PUSH1 0x40 MLOAD DUP1 SWAP2 SUB SWAP1 LOG3 POP POP JUMP JUMPDEST PUSH0 CALLER SWAP1 POP SWAP1 JUMP JUMPDEST PUSH0 DUP2 SWAP1 POP SWAP2 SWAP1 POP JUMP JUMPDEST PUSH2 0x8CA DUP2 PUSH2 0x8B8 JUMP JUMPDEST DUP3 MSTORE POP POP JUMP JUMPDEST PUSH0 PUSH1 0x20 DUP3 ADD SWAP1 POP PUSH2 0x8E3 PUSH0 DUP4 ADD DUP5 PUSH2 0x8C1 JUMP JUMPDEST SWAP3 SWAP2 POP POP JUMP JUMPDEST PUSH0 DUP1 REVERT JUMPDEST PUSH0 PUSH20 0xFFFFFFFFFFFFFFFFFFFFFFFFFFFFFFFFFFFFFFFF DUP3 AND SWAP1 POP SWAP2 SWAP1 POP JUMP JUMPDEST PUSH0 PUSH2 0x916 DUP3 PUSH2 0x8ED JUMP JUMPDEST SWAP1 POP SWAP2 SWAP1 POP JUMP JUMPDEST PUSH2 0x926 DUP2 PUSH2 0x90C JUMP JUMPDEST DUP2 EQ PUSH2 0x930 JUMPI PUSH0 DUP1 REVERT JUMPDEST POP JUMP JUMPDEST PUSH0 DUP2 CALLDATALOAD SWAP1 POP PUSH2 0x941 DUP2 PUSH2 0x91D JUMP JUMPDEST SWAP3 SWAP2 POP POP JUMP JUMPDEST PUSH0 PUSH1 0x20 DUP3 DUP5 SUB SLT ISZERO PUSH2 0x95C JUMPI PUSH2 0x95B PUSH2 0x8E9 JUMP JUMPDEST JUMPDEST PUSH0 PUSH2 0x969 DUP5 DUP3 DUP6 ADD PUSH2 0x933 JUMP JUMPDEST SWAP2 POP POP SWAP3 SWAP2 POP POP JUMP JUMPDEST PUSH0 DUP2 ISZERO ISZERO SWAP1 POP SWAP2 SWAP1 POP JUMP JUMPDEST PUSH2 0x986 DUP2 PUSH2 0x972 JUMP JUMPDEST DUP3 MSTORE POP POP JUMP JUMPDEST PUSH0 PUSH1 0x20 DUP3 ADD SWAP1 POP PUSH2 0x99F PUSH0 DUP4 ADD DUP5 PUSH2 0x97D JUMP JUMPDEST SWAP3 SWAP2 POP POP JUMP JUMPDEST PUSH2 0x9AE DUP2 PUSH2 0x8B8 JUMP JUMPDEST DUP2 EQ PUSH2 0x9B8 JUMPI PUSH0 DUP1 REVERT JUMPDEST POP JUMP JUMPDEST PUSH0 DUP2 CALLDATALOAD SWAP1 POP PUSH2 0x9C9 DUP2 PUSH2 0x9A5 JUMP JUMPDEST SWAP3 SWAP2 POP POP JUMP JUMPDEST PUSH0 DUP1 PUSH1 0x40 DUP4 DUP6 SUB SLT ISZERO PUSH2 0x9E5 JUMPI PUSH2 0x9E4 PUSH2 0x8E9 JUMP JUMPDEST JUMPDEST PUSH0 PUSH2 0x9F2 DUP6 DUP3 DUP7 ADD PUSH2 0x9BB JUMP JUMPDEST SWAP3 POP POP PUSH1 0x20 PUSH2 0xA03 DUP6 DUP3 DUP7 ADD PUSH2 0x933 JUMP JUMPDEST SWAP2 POP POP SWAP3 POP SWAP3 SWAP1 POP JUMP JUMPDEST PUSH2 0xA16 DUP2 PUSH2 0x90C JUMP JUMPDEST DUP3 MSTORE POP POP JUMP JUMPDEST PUSH0 PUSH1 0x20 DUP3 ADD SWAP1 POP PUSH2 0xA2F PUSH0 DUP4 ADD DUP5 PUSH2 0xA0D JUMP JUMPDEST SWAP3 SWAP2 POP POP JUMP JUMPDEST PUSH0 PUSH1 0x20 DUP3 DUP5 SUB SLT ISZERO PUSH2 0xA4A JUMPI PUSH2 0xA49 PUSH2 0x8E9 JUMP JUMPDEST JUMPDEST PUSH0 PUSH2 0xA57 DUP5 DUP3 DUP6 ADD PUSH2 0x9BB JUMP JUMPDEST SWAP2 POP POP SWAP3 SWAP2 POP POP JUMP JUMPDEST PUSH0 DUP3 DUP3 MSTORE PUSH1 0x20 DUP3 ADD SWAP1 POP SWAP3 SWAP2 POP POP JUMP JUMPDEST PUSH32 0x596F7520617265206E6F7420617574686F72697A656420746F20757365207468 PUSH0 DUP3 ADD MSTORE PUSH32 0x69732066756E6374696F6E000000000000000000000000000000000000000000 PUSH1 0x20 DUP3 ADD MSTORE POP JUMP JUMPDEST PUSH0 PUSH2 0xACA PUSH1 0x2B DUP4 PUSH2 0xA60 JUMP JUMPDEST SWAP2 POP PUSH2 0xAD5 DUP3 PUSH2 0xA70 JUMP JUMPDEST PUSH1 0x40 DUP3 ADD SWAP1 POP SWAP2 SWAP1 POP JUMP JUMPDEST PUSH0 PUSH1 0x20 DUP3 ADD SWAP1 POP DUP2 DUP2 SUB PUSH0 DUP4 ADD MSTORE PUSH2 0xAF7 DUP2 PUSH2 0xABE JUMP JUMPDEST SWAP1 POP SWAP2 SWAP1 POP JUMP JUMPDEST PUSH0 DUP2 SWAP1 POP SWAP3 SWAP2 POP POP JUMP JUMPDEST POP JUMP JUMPDEST PUSH0 PUSH2 0xB16 PUSH0 DUP4 PUSH2 0xAFE JUMP JUMPDEST SWAP2 POP PUSH2 0xB21 DUP3 PUSH2 0xB08 JUMP JUMPDEST PUSH0 DUP3 ADD SWAP1 POP SWAP2 SWAP1 POP JUMP JUMPDEST PUSH0 PUSH2 0xB35 DUP3 PUSH2 0xB0B JUMP JUMPDEST SWAP2 POP DUP2 SWAP1 POP SWAP2 SWAP1 POP JUMP JUMPDEST PUSH32 0x5472616E73616374696F6E206661696C65640000000000000000000000000000 PUSH0 DUP3 ADD MSTORE POP JUMP JUMPDEST PUSH0 PUSH2 0xB73 PUSH1 0x12 DUP4 PUSH2 0xA60 JUMP JUMPDEST SWAP2 POP PUSH2 0xB7E DUP3 PUSH2 0xB3F JUMP JUMPDEST PUSH1 0x20 DUP3 ADD SWAP1 POP SWAP2 SWAP1 POP JUMP JUMPDEST PUSH0 PUSH1 0x20 DUP3 ADD SWAP1 POP DUP2 DUP2 SUB PUSH0 DUP4 ADD MSTORE PUSH2 0xBA0 DUP2 PUSH2 0xB67 JUMP JUMPDEST SWAP1 POP SWAP2 SWAP1 POP JUMP JUMPDEST PUSH32 0x416D6F756E74206E6F7420656E6F756768000000000000000000000000000000 PUSH0 DUP3 ADD MSTORE POP JUMP JUMPDEST PUSH0 PUSH2 0xBDB PUSH1 0x11 DUP4 PUSH2 0xA60 JUMP JUMPDEST SWAP2 POP PUSH2 0xBE6 DUP3 PUSH2 0xBA7 JUMP JUMPDEST PUSH1 0x20 DUP3 ADD SWAP1 POP SWAP2 SWAP1 POP JUMP JUMPDEST PUSH0 PUSH1 0x20 DUP3 ADD SWAP1 POP DUP2 DUP2 SUB PUSH0 DUP4 ADD MSTORE PUSH2 0xC08 DUP2 PUSH2 0xBCF JUMP JUMPDEST SWAP1 POP SWAP2 SWAP1 POP JUMP JUMPDEST PUSH32 0x4E487B7100000000000000000000000000000000000000000000000000000000 PUSH0 MSTORE PUSH1 0x11 PUSH1 0x4 MSTORE PUSH1 0x24 PUSH0 REVERT JUMPDEST PUSH0 PUSH2 0xC46 DUP3 PUSH2 0x8B8 JUMP JUMPDEST SWAP2 POP PUSH2 0xC51 DUP4 PUSH2 0x8B8 JUMP JUMPDEST SWAP3 POP DUP3 DUP3 ADD SWAP1 POP DUP1 DUP3 GT ISZERO PUSH2 0xC69 JUMPI PUSH2 0xC68 PUSH2 0xC0F JUMP JUMPDEST JUMPDEST SWAP3 SWAP2 POP POP JUMP INVALID LOG2 PUSH5 0x6970667358 0x22 SLT KECCAK256 OR PREVRANDAO CREATE PUSH27 0x715D3259FCD9AA029B6883CDB4F831BC080E8B5C01AFCE3B9663AA CALLER PUSH5 0x736F6C6343 STOP ADDMOD XOR STOP CALLER "
				},
				"gasEstimates": {
					"creation": {
						"codeDepositCost": "647400",
						"executionCost": "infinite",
						"totalCost": "infinite"
					},
					"external": {
						"Authorize(address)": "2878",
						"Balance()": "2426",
						"LiquidtyProviders(address)": "2825",
						"addAuthorization(address)": "infinite",
						"fund()": "infinite",
						"funders(uint256)": "5010",
						"getAuthorization(address)": "2892",
						"getLiquidtyAmount()": "401",
						"owner()": "2560",
						"removeAuthorization(address)": "infinite",
						"renounceOwnership()": "infinite",
						"send(uint256,address)": "infinite",
						"transferOwnership(address)": "infinite"
					}
				},
				"methodIdentifiers": {
					"Authorize(address)": "6d81a01b",
					"Balance()": "0ef67887",
					"LiquidtyProviders(address)": "8c7d6f90",
					"addAuthorization(address)": "35b28153",
					"fund()": "b60d4288",
					"funders(uint256)": "dc0d3dff",
					"getAuthorization(address)": "9f64bd48",
					"getLiquidtyAmount()": "6daaaaef",
					"owner()": "8da5cb5b",
					"removeAuthorization(address)": "94f3f81d",
					"renounceOwnership()": "715018a6",
					"send(uint256,address)": "785d04f5",
					"transferOwnership(address)": "f2fde38b"
				}
			},
			"storageLayout": {
				"storage": [
					{
						"astId": 8,
						"contract": "cocoaland/Pools/BaseSepoliapool.sol:BaseCocoaLandPool",
						"label": "_owner",
						"offset": 0,
						"slot": "0",
						"type": "t_address"
					},
					{
						"astId": 184,
						"contract": "cocoaland/Pools/BaseSepoliapool.sol:BaseCocoaLandPool",
						"label": "Balance",
						"offset": 0,
						"slot": "1",
						"type": "t_uint256"
					},
					{
						"astId": 187,
						"contract": "cocoaland/Pools/BaseSepoliapool.sol:BaseCocoaLandPool",
						"label": "funders",
						"offset": 0,
						"slot": "2",
						"type": "t_array(t_address)dyn_storage"
					},
					{
						"astId": 191,
						"contract": "cocoaland/Pools/BaseSepoliapool.sol:BaseCocoaLandPool",
						"label": "Authorize",
						"offset": 0,
						"slot": "3",
						"type": "t_mapping(t_address,t_bool)"
					},
					{
						"astId": 195,
						"contract": "cocoaland/Pools/BaseSepoliapool.sol:BaseCocoaLandPool",
						"label": "LiquidtyProviders",
						"offset": 0,
						"slot": "4",
						"type": "t_mapping(t_address,t_uint256)"
					}
				],
				"types": {
					"t_address": {
						"encoding": "inplace",
						"label": "address",
						"numberOfBytes": "20"
					},
					"t_array(t_address)dyn_storage": {
						"base": "t_address",
						"encoding": "dynamic_array",
						"label": "address[]",
						"numberOfBytes": "32"
					},
					"t_bool": {
						"encoding": "inplace",
						"label": "bool",
						"numberOfBytes": "1"
					},
					"t_mapping(t_address,t_bool)": {
						"encoding": "mapping",
						"key": "t_address",
						"label": "mapping(address => bool)",
						"numberOfBytes": "32",
						"value": "t_bool"
					},
					"t_mapping(t_address,t_uint256)": {
						"encoding": "mapping",
						"key": "t_address",
						"label": "mapping(address => uint256)",
						"numberOfBytes": "32",
						"value": "t_uint256"
					},
					"t_uint256": {
						"encoding": "inplace",
						"label": "uint256",
						"numberOfBytes": "32"
					}
				}
			},
			"userdoc": {
				"kind": "user",
				"methods": {},
				"version": 1
			}
		}
	}
}